:020000040800F2
:10000000A82A0420AD02000871AD0008777E000820
:100010006DAD00082932000819D700080000000063
:1000200000000000000000000000000025C80008DB
:100030004137000800000000B9AD000839CD0008C4
:10004000C7020008C7020008C7020008C70200086C
:10005000C7020008C7020008C7020008C70200085C
:10006000C7020008C70200088D3A0008C70200084E
:10007000D9340008C7020008E9340008F934000840
:10008000C7020008C7020008C7020008C70200082C
:10009000C7020008C7020008C7020008973A000814
:1000A000C702000805CE0008C7020008C702000802
:1000B000C7020008C7020008C7020008C7020008FC
:1000C000C7020008C7020008C7020008C7020008EC
:1000D0008DBE0008C7020008C7020008C70200085A
:1000E000C7020008C7020008C7020008C7020008CC
:1000F000C7020008C7020008C7020008C7020008BC
:10010000C702000805AE0008C7020008C7020008C1
:10011000C7020008C702000815CE000825CE000857
:100120000935000819350008C702000829350008FC
:1001300039350008C7020008C7020008C7020008D6
:10014000C7020008C7020008C7020008C70200086B
:10015000C702000849350008C7020008C7020008A6
:10016000C7020008C7020008C7020008C70200084B
:10017000C7020008C70200080000000000000000DD
:10018000C7020008C7020008E9D00008C70200083B
:100190009DBE0008ADBE000800000000C7020008B8
:1001A000C7020008C70200080000000000000000AD
:1001B000C70200080000000000000000C70200089D
:1001C000C7020008C7020008C7020008C7020008EB
:1001D000C7020008C702000800F002F800F057F854
:1001E0000AA090E8000C82448344AAF10107DA4592
:1001F00001D100F04CF8AFF2090EBAE80F0013F08D
:10020000010F18BFFB1A43F00103184758470200BB
:1002100078470200103A24BF78C878C1FAD852074C
:1002200024BF30C830C144BF04680C607047000070
:100230000023002400250026103A28BF78C1FBD8EF
:10024000520728BF30C148BF0B607047662912F0C3
:100250009E86642900F08881732900F0F8860020CA
:1002600070471FB512F089FE9DE8030000F016FCF0
:1002700000F05CFF04000020002111F091FFE0601D
:1002800001F072F81FBD10B501F0D7F810BD01F0F4
:100290002DF91146FFF7E5FF11F084F901F00AFA94
:1002A00003B4FFF7F0FF03BC01F042FA09488047AE
:1002B00009480047FEE7FEE7FEE7FEE7FEE7FEE748
:1002C000FEE7FEE7FEE7FEE704480549054A064B60
:1002D00070470000F1CD0008D9010008A82A0220CB
:1002E000A82A0420A82A0320A82A032070B50646BD
:1002F00000F0B8FB056806F10B0020F00704B442DB
:100300009CBF002070BD2B466A68BAB11068A0423D
:1003100010D304F1080188423CBF5068586007D3ED
:100320005168101941601168091B01605860146020
:10033000101D70BD13465268002AE7D12146284699
:1003400000F098FB0028DED170BD70B50446051F93
:1003500000F088FB0068002C14BF446870BD002CBE
:1003600018BFAC423CBF20466468F8D301680A1845
:10037000AA4218BF456003D12A68054611440160AE
:1003800028684119A1421CBF6C6070BD616869603A
:1003900021680844286070BD53EA020C00F06980AF
:1003A0002DE9F04B4FF00006002B1FBFB3FA83F589
:1003B00003FA05F424FA05F65E4012BF1643B2FABA
:1003C00082F502FA05F4C5F120051EBF22FA05FCEC
:1003D00044EA0C04203556EA044C4FEA144418BF92
:1003E000641C4FF000084FF00009904271EB030CC1
:1003F00039D3002919BFB1FA81F701FA07F6B0FA2B
:1004000080F700FA07F6C7F120071EBF20FA07FCA5
:1004100046EA0C062037B6FBF4FCA7EB0507103FB5
:1004200007F01F0BCBF120060CFA0BFB2CFA06F69B
:1004300044BFB3460026202FA4BF5E464FF0000BFA
:100440005BEA060C08BF4FF0010B19EB0B09ABFB85
:10045000027C48EB0608C01B06FB02CC0BFB03CC5E
:1004600071EB0C01C1E70B46024641464846BDE828
:10047000F08B13B54FF000004FF00001AFF3008098
:10048000BDE81C40704700000FB4044910B503AA32
:10049000029800F0E1FD10BC5DF814FB9C290220DD
:1004A0000FB41CB5074B06AA7B446946009005981B
:1004B00000F0A3FD0020694600F0B2FD1CBC5DF811
:1004C00014FB0000750B000070B5044685690068D8
:1004D000C10601D5302600E02026C00707D070BD38
:1004E000D4E9012130469047206A401C20626D1EED
:1004F000F6D570BD70B5044685690078C00707D190
:1005000070BDD4E9012120209047206A401C206260
:100510006D1EF6D570BD70B50C460546012A05D096
:100520002878800600D5EA69002302E0012305E06F
:100530005B1C934202D2E05C0028F9D1A869E6185E
:10054000C01AA861286A184428622846FFF7BCFF31
:1005500004E0D5E9012114F8010B9047B442F8D327
:100560002846FFF7C7FF70BD2DE9F041064600247D
:1005700010687529314616A510D0AFF30080002809
:1005800002DA404213A507E031688A0701D512A5B7
:1005900002E0490704D511A5012401E0AFF3008072
:1005A00000210A2206F1240709E0B0FBF2FCB0FBAF
:1005B000F2F302FB1C00303078541846491C002826
:1005C000F3D123462A463046BDE8F04100F0A7BAF1
:1005D000000000002D0000002B00000020000000A3
:1005E0002DE9F0474FF0000A89460446C0F820A0E4
:1005F0002046E1688847002876D0252806D0D4E92F
:1006000001219047206A401C2062F1E7E168204602
:1006100000258847C4F81CA006460027C4F818A087
:100620002A2E09D030460EF04DF938B304EB870876
:10063000303EC8F8186019E059F8041B204604EB56
:1006400087029161E1688847012F064618D1E06969
:10065000002820DA25F020051DE0D8F8180000EB6E
:10066000800006EB40003038C8F818002046E168EA
:10067000884706460EF026F90028EED1012F0AD051
:100680002E2E08D12046E16888477F1C0646022F9F
:1006900045F02005C4DBA069002803DA404245F09C
:1006A0000105A061E80701D025F01005B6B1A6F15B
:1006B0004100192802D8203645F400654A463146E3
:1006C000204625604D46FFF7C1FD58B1012806D0F0
:1006D000ED1D25F0070000F1080989E704E005F1A8
:1006E000040985E730468AE7206ABDE8F087000004
:1006F000014A00F0C3BC0000E4000020401ECAB262
:1007000010F8011F8A4202D00029F9D10020704759
:1007100030B505460B462A4613F8014B12F8010B7B
:1007200008B1A042F8D01CB1002802D06D1CF1E73E
:10073000284630BD40EA0103024630B59B0710D180
:100740004FF0013400E008C208C91D1B9D4315EAA3
:10075000C41FF8D013F0FF0102F8011B0DD01B0AD3
:10076000F8E711F8013B002B02F8013B05D011F826
:10077000013B002B02F8013BF3D130BD10B5431C07
:1007800002E010F8011B71B18107FAD14FF001327C
:1007900002C88C1A8C4314EAC211F9D0C01A0A0696
:1007A00003D0C01E10BDC01A10BD0A0401D0801EA7
:1007B00010BD0902FCD0401E10BD40EA010370B517
:1007C0009B072ED14FF00136042A2AD308C810C93E
:1007D0009D1B9D43121F15EAC61517D0D8B2E1B272
:1007E000401A50EA056110D198B2A1B2401A50EAFD
:1007F00005410AD123F07F4024F07F41401A50EA9E
:10080000052102D1180EA0EB146070BDA342DBD00D
:1008100018BA21BA884201D9012070BD4FF0FF30CB
:1008200070BD0AB9002070BD10F8013B11F8014BF2
:1008300063B1A3420AD1521E08D010F8013B11F84F
:10084000014B1BB1A34201D1521EEDD1181B70BD4B
:10085000421E12F8013F002BFBD111F8013B002B87
:1008600002F8013BF9D17047032A40F2308010F0C2
:10087000030C00F0158011F8013BBCF1020F62443B
:1008800098BF11F801CB00F8013B38BF11F8013BCC
:10089000A2F1040298BF00F801CB38BF00F8013B79
:1008A00011F0030300F00C84083AC0F0088051F8FE
:1008B000043B083A51F804CBA0E80810F5E7121DF4
:1008C0005CBF51F8043B40F8043BAFF30080D20713
:1008D00024BF11F8013B11F801CB48BF11F8012BDF
:1008E00024BF00F8013B00F801CB48BF00F8012B02
:1008F00070474FF000020429C0F0128010F0030C82
:1009000000F01B80CCF1040CBCF1020F18BF00F802
:10091000012BA8BF20F8022BA1EB0C0100F00DB8B1
:100920005FEAC17C24BF00F8012B00F8012B48BF0F
:1009300000F8012B70474FF0000200B513469446B3
:100940009646203922BFA0E80C50A0E80C50B1F127
:100950002001BFF4F7AF090728BFA0E80C5048BF3B
:100960000CC05DF804EB890028BF40F8042B08BFD9
:10097000704748BF20F8022B11F0804F18BF00F8D5
:10098000012B704710B5044610F0030F08BF11F09B
:10099000030F40F015804FF0013E121FC0F20E8091
:1009A00051F8043BA3EB0E0C2CEA030C1CEACE1C02
:1009B00008BF40F8043BF0D0A1F1040102F10402A9
:1009C000521E08DB11F8013B002B00F8013BF7D168
:1009D0001146FFF78EFF204610BD00004FF0013C8E
:1009E00050F8042B51F8043B9A4221D1A2EB0C039E
:1009F000934313EACC1317D150F8042B51F8043B5E
:100A00009A4215D1A2EB0C03934313EACC130BD1FA
:100A100050F8042B51F8043B9A4209D1A2EB0C0385
:100A2000934313EACC13DBD04FF00000704700BFB4
:100A3000D01A01BAB1FA81F101F0180122FA01F0DD
:100A4000CB40C1F12001DBB2C0B2C01A2CFA01F3D5
:100A5000D11A914311EAC311E6D17047704770472C
:100A600070470000004870474C2A022070477047CA
:100A70007047704738B504460A4600206946AFF310
:100A80000080002808BF38BD02460099204600F0CB
:100A900055FB012038BD012000F002BDF8B5AFF3D1
:100AA0000080054600200C46102000BF0646A8190D
:100AB000A0420DD9324669460020AFF300800700FE
:100AC00008BF00F0EDFC0098A04218BF0546C4190D
:100AD000FFF7C8FF05600746F01D20F00700461924
:100AE000284600F00AF8B44208BFF8BDA21B314600
:100AF0003868BDE8F84000F021BB00210160C0E982
:100B0000011070471020704710B500F013FB00680B
:100B100010BD10B5044600F00DFB046010BD2DE9BA
:100B2000F0470D4699469246044600F124080168B4
:100B3000880604D5E06921F01001216000E0012061
:100B4000A84201DD471B00E00027A1697A1902EBEA
:100B50000900081AA0612078C00602D42046FFF7D9
:100B6000B3FC002608E0D4E901211AF806009047FA
:100B7000206A401C761C20624E45F4DB2078C006BB
:100B80000AD52046FFF7A0FC06E0D4E90121302079
:100B90009047206A401C2062381EA7F10107F4DC50
:100BA00007E0D4E9012118F805009047206A401CAD
:100BB0002062281EA5F10105F3DC2046FFF79AFC10
:100BC0002078000602D50220BDE8F0870120FBE76F
:100BD00070472DE9FF4F0C461E464FF0FF378BB094
:100BE000D2E90001DDF860800A908A46C1F30A5517
:100BF00005B93D46002108464FF00000BAF1000F4C
:100C000000F4400005DA00EB80004FF4400101EAF7
:100C100050004FEA9059B9F1010F00DDB9460A982A
:100C200050EA4A000ED044F61050A5F2FF35454375
:100C30002F14B8F1000F1ED07542291E1EDDC9F118
:100C400000021CE0B8F1010F4FF0000001D030218C
:100C500003E0F24305E02154401CB042FBDB304688
:100C60000022002121540B99C1F80880C1E900201D
:100C70000FB0BDE8F08FBD1B6D1CDEE74A4600DA01
:100C8000694206A800F0FAFA06AB93E8070003AB46
:100C900083E8070050460A9900F0A0FE8DE807009F
:100CA000A0F500501F3800900398002D0ADD42F295
:100CB0001F014A460844002303A90390684601F037
:100CC00009F909E0A0F500504A461F38002303A99E
:100CD0000390684601F013F98DE807000004000C4A
:100CE00003D04FF0FF30410800E01046B8F1000F8C
:100CF00003D00022009215461EE0751E05D400F0B8
:100D000037FA303262556D1EF9D5B34601220843D9
:100D100002D000227F1C04E02078302801D100227C
:100D20007F1E002A099784D01DE0112D07DA00F0FC
:100D30001FFA303262556D1C50EA0102F5D10843AA
:100D400002D00098C8B10EE00021681E05E0235CC7
:100D5000625C63542254401E491C8142F7DBAB465F
:100D6000A81B401E0990002004F80B000B98099A5C
:100D7000C0F80880C0E9002B7AE711264FF0000880
:100D800057E72DE9F04F88460446D21D22F00701AF
:100D900091B0D1E90001CDE90A010CF0BFFC024697
:100DA0000B98C00F01D02D2007E02068810701D5E6
:100DB0002B2002E0202101EAC000032A099001D083
:100DC000072A05DB03464146204600F017FA0BE1EF
:100DD0002078800601D5E06900E00620B8F1650FB3
:100DE000814606D0B8F1660F18D0B8F1670F70D100
:100DF00031E00020B9F1110F009001DB112301E077
:100E000009F101030AAA01A90CA8FFF7E2FEDDE936
:100E10000C70002609F10105834647E001204B468E
:100E200000904FF000470AAA01A90CA8FFF7D1FED5
:100E3000DDE90DB00C995D46002610B909F10100FD
:100E40000D18B9EB050003D4C0F1FF3609F1010517
:100E5000A5EB09002BE0B9F1010F01DA4FF0010910
:100E60000020B9F1110F0090484601DD112300E088
:100E700003460AAA01A90CA8FFF7ABFEDDE90C7036
:100E80004D4600268346207800070AD4AB4500DA99
:100E90005D4601A8012D04DD411911F8011C30291E
:100EA00007D04F4502DA17F1040F04DA0120824619
:100EB0000FE06D1EEEE7002F02DCED1B3E4403E069
:100EC000781CA84200DD7D1CB81B00F1010A4FF020
:100ED00000472078000703D4AA4501DB4FF0FF3A12
:100EE0000021B7F1004F0DF143088DF8431024D0D5
:100EF00002202B23002F01DA7F422D230A21021E1C
:100F0000A0F1010000DC5FB197FBF1FC97FBF1F26F
:100F100001FB1C7C17460CF1300C08F801CDEEE704
:100F2000A8F1010003702188090501D5452100E0E1
:100F30006521A0F1010800F8011C09980FA9A1EB97
:100F40000807FF1D00B10120411901EBEA70A169FA
:100F50003844081A401EA0612078C00602D42046FA
:100F6000FFF7B2FA099828B1D4E901219047206A25
:100F7000401C20622078C00622D52046FFF7A4FA44
:100F80001EE0002E04DBB34502DD01A8805D00E019
:100F90003020D4E901219047206A401C2062761C51
:100FA000AAF101005FEA000A0AD100F0BFF8C068A8
:100FB0000168405CD4E901219047206A401C20620E
:100FC000281EA5F10105DCDC07E0D4E9012118F8B1
:100FD000010B9047206A401C2062381EA7F10107D0
:100FE000F3DC2046FFF786FA032011B041E600004B
:100FF00001694A1C02610878704700B58FB0CDE9DD
:1010000001310021059105497944CDE903101146CC
:101010006846FFF7E5FA0FB000BD0000E5FFFFFFEF
:101020000A6802F8010B0A60704710B5436913B1F2
:10103000AFF3008001E0FFF76EFA012010BD1278D7
:1010400000F124010A7000224A700122EDE71168C4
:101050004FF0FF32E9E70000074B70B50D467B44C7
:10106000FFF7CBFF0446284600F07AF910B14FF0A5
:10107000FF3070BD204670BDCBFF00002DE9F04170
:1010800015460E46040002D12C6804B90BA4204674
:1010900000F01DFA0444207870B1274631463846E6
:1010A00000F005FA0444207810B1002004F8010B88
:1010B00038462C60BDE8F0810027F9E70000000009
:1010C00010B5203AC0F00B80B1E81850203AA0E8E3
:1010D0001850B1E81850A0E81850BFF4F5AF5FEA17
:1010E000027C24BFB1E81850A0E8185044BF18C9CA
:1010F00018C0BDE810405FEA827C24BF51F8043B71
:1011000040F8043B08BF7047D20728BF31F8023BC4
:1011100048BF11F8012B28BF20F8023B48BF00F858
:10112000012B704700487047442A0220004870474E
:10113000642A022000487047442A0220034640687F
:101140008C46002818BF88423CBF03464068F8D34D
:1011500018681844884207D00CF1030020F00700FB
:10116000001D411A521A0146081D0A60FFF7EDB82A
:1011700030B5B0F10A024FEA900E71F100034EEA69
:10118000817EB0EB0E0061EB91014FEA101E4EEA3A
:10119000017E10EB0E0041EB11114FEA102E4EEACA
:1011A000016E10EB0E0041EB11214FEA104E4EEA9A
:1011B000014E10EB0E0041EB1141401841F10001CE
:1011C0004FEAD00040EA41704FEAD10110EB8005B0
:1011D0004FEA810444EA907444EB01046D1944EB36
:1011E0000404521BA3414FF0000348BF0A3200D54C
:1011F00030BD401C41F1000130BD00002DE9F0413F
:101200001F46044603260168072A01F4006004DB38
:1012100008B116A505E016A503E008B115A500E084
:1012200015A521F010002060A069C01EA0610FB1BB
:10123000401EA0612046FFF747F94FB1D4E90121D4
:1012400038469047206A401C2062C01C206206E09D
:10125000206AFAE7D4E9012115F8010B9047761EC0
:10126000F8D22046FFF746F9BDE8F0814E414E0026
:101270006E616E00494E4600696E66002DE9F047CA
:10128000814616468AB0354878440DC88DE80D0071
:1012900032487844801C03AC0DC884E80D0041F648
:1012A0009B300844372190FBF1F290FBF1F5A5F15A
:1012B000800501FB12041B3C02D56442012000E0C2
:1012C0000020DFF898A080460027FA44AAF1BE0A61
:1012D0000EE0E0070AD03246684607EB47010123DB
:1012E0000AEB810100F00BFE8DE8070064107F1C03
:1012F000002CEED1194F7F44AE3F19E0E80715D01E
:1013000007EB04100DF1180A90E80E008AE80E00B1
:10131000C068F04201D1981908903246012306A90D
:1013200003A800F0ECFD03AB83E807006D10641C1C
:10133000002DE3D14FF0010332466946B8F1000FAA
:1013400003A802D000F0C6FD01E000F0D8FDC9E915
:101350000001C9F808200AB0BDE8F087C0360200D5
:10136000007B00F08000704710B542485421FFF721
:10137000E2FA41485421FFF7DEFA40485421FFF7D2
:10138000DAFA3F493B483C4A3F4B08603D490A6016
:101390003A491960531C0365481C10650120086513
:1013A0003B48344A39A1784400F0E8F820B938487D
:1013B00078440A3800F08CF937482F4A35A1784430
:1013C00000F0DCF820B9344878440A3800F080F99D
:1013D00032482A4A2FA1784400F0D0F820B92F488B
:1013E00078440A3800F074F940232248DC000021D8
:1013F000224600F0A0F820B125487844543800F087
:1014000067F91D4822464023002100F094F820B1DE
:1014100021487844543800F05BF9184822461023DC
:10142000002100F088F8002806D01C487844BDE868
:101430001040563800F04CB910BD104870B5006D22
:1014400020F001040B4800F00FF90B4800F00CF9F4
:101450000A4800F009F909E0206D20F00105204656
:1014600000F002F92046FEF770FF2C46002CF3D165
:1014700070BD0000482902209C290220F02902208A
:10148000E8000020EC000020F000002072000000C6
:101490003E340200770000002D3402001D340200AB
:1014A00010B500F01DF9BDE8104000F00CB930B5E2
:1014B00003461D781DB10A4603E0AC4201D1181A5B
:1014C00030BD12F8014B002CF7D15B1CF1E730B5B1
:1014D00003461D783DB10A4612F8014B1CB1AC42DF
:1014E000FAD15B1CF5E7181A30BD70477546FFF757
:1014F00019FEAE4605006946534620F007008546B2
:1015000018B020B5FEF7E0FEBDE820404FF0000621
:101510004FF000074FF000084FF0000B21F00701DB
:10152000AC46ACE8C009ACE8C009ACE8C009ACE81E
:10153000C0098D46704770B5C468A50713D0650211
:1015400011D4B2F5807F09D0B2F5007F06D0B2F594
:10155000806F08D1012300F1240106E05D1E6FF0C9
:101560007F46B54201D3012070BD0161C361416076
:1015700024F470611143C160002070BD2DE9F04179
:101580000C4607461646104600F06EF82078611C9F
:1015900061280AD0722802D077283CD102E00125C8
:1015A000002405E00225042402E0082448F2020594
:1015B00011F8010B2B2806D0622809D011F8010C74
:1015C00074280AD00BE045F0030544F00204EFE76D
:1015D00045F0040544F00104EAE744F010043846FD
:1015E00021460DF0ADF9411C15D00021316171602B
:1015F0004FF40071F560F1617061200704D5304649
:101600000222002100F09AF8306D40F001003065B0
:101610003046BDE8F0810020FBE72DE9F0410D46A2
:101620000646104C206DC10704D0410804D020F0BC
:101630000104F7E722460EE05420FEF757FE0700AC
:101640000ED0206D47F00101084354212065384633
:10165000FFF771F93A4629463046BDE8F0418DE77B
:101660000020D6E7482902202DE9F04704464FF034
:1016700000094FF0FF37C568D4E90486A80707D0F2
:10168000204600F00BF930460DF023F9002802DA6D
:101690003846BDE8F087280502D54046FEF755FEDE
:1016A0004C212046FFF747F9206D20F0010020650E
:1016B0004846EEE710B50446AFF300802046BDE88B
:1016C0001040FEF7EDBD002801D000F031B87047A2
:1016D00010B500F041F9BDE81040FFF7F4BF00007D
:1016E00010B5012805D0002103A000F01BF901204E
:1016F00010BD09A1F8E7000053494752544D454D2C
:101700003A204F7574206F662068656170206D65A2
:101710006D6F7279000000003A2048656170206D9D
:10172000656D6F727920636F727275707465640095
:1017300001491820ABBEFEE7260002002DE9F0416A
:10174000044616460D464769007B80072ED0384672
:101750000DF0E4F850BB3EB3012E02D0022E25D18D
:1017600004E0204600F019F905441DE038460DF06C
:10177000C3F8E168002841F01001E16005DA204675
:1017800000F058F80120BDE8F081C9030BD562686C
:10179000E16A914200D81146A26911442269891A6E
:1017A000814200DD08460544002D01DA0220EAE707
:1017B000E16A6068E268814206D29103E06203D583
:1017C00022F4003141F01002A6690027AE4213DC7A
:1017D000E16A814201D90B4600E0034603EB060CA7
:1017E0002369ACEB030CAC4506DD814201D98C4684
:1017F00000E084469C4505D1A760276042F02000A8
:10180000A5620DE0AD1BE669AE1B8142A66000D962
:101810000846C01A281A20605819606022F020007B
:1018200003490840E060002084F84870ABE70000FE
:10183000BFCFD7FFC16821F4001141F08001C16022
:1018400000218160016070472DE9F0478146144610
:101850000E464FF0FF383248D5685769054209D027
:101860003846A1690DF0A0F8002811DB2C48C043D0
:101870000540E5602B463246494638460DF0AAF849
:10188000A16920F00042B21A11440028A16103D0DE
:101890002046FFF7CFFF4046BDE8F08770B504460D
:1018A0000569C06A6168884200D80846E16821F489
:1018B0002011E160C90312D5A84208D02246411B7D
:1018C0002846FFF7C1FF10B14FF0FF3070BD002078
:1018D000E562C4E90150E06820F48030E060002057
:1018E00070BD10B50446C06820F02000E060A16A19
:1018F000A06988420DD02046FFF7D0FFE06820F4B1
:10190000405040F01000E060A06AA0612069E062F1
:10191000606044F24001E0688843E06010BD000070
:101920001000020070B505460C460A2000E06D1C50
:1019300000F02CF835B128780028F8D102E0641CBA
:1019400000F024F814B120780028F8D1BDE87040E8
:101950000A2000F01BB8000010B5014602A0FFF7F6
:10196000E1FF012010BD0000534947525452454445
:101970003A2052656469726563743A2063616E2728
:1019800074206F70656E3A200000000008B569464B
:101990008DF800000320ABBE08BD10B50146C2683B
:1019A000900703D0900607D5886A0AE0FFF7C2FBCC
:1019B00001210160881E10BD8B69486818440B69BD
:1019C000C01A91F848301BB191F84910401A10BD67
:1019D0001103FCD50028FADD401E10BD5FEA400C63
:1019E00008BF91F0000F4FEA8C234FEAC12243EA6F
:1019F00051514FEA1C5018BF00F5F0404FEA30003B
:101A000018BF41F000415FEA6C5C00F02980BCF136
:101A1000FF3F08BF40F080407047130C06BF120420
:101A20004FF0100C4FF0000C130E04BF12020CF11B
:101A3000080C130F04BF12010CF1040C930F04BF28
:101A400092000CF1020CD30F04BF52000CF1010CF8
:101A500011464FF00002A0F11F00A0EB0C007047F0
:101A600011F0004F08BF704731F000413FF4D5AF8F
:101A70000B0C06BF09044FF0100C4FF0000C0B0EBE
:101A800004BF09020CF1080C0B0F04BF09010CF193
:101A9000040C8B0F04BF89000CF1020CCB0F04BFA8
:101AA00049000CF1010CCCF12003A0EB0C0022FA50
:101AB00003F302FA0CF241EA030100F1010070475E
:101AC00020F07F4C80EA030023F07F47ACEB070354
:101AD00003F57C5300F0004003F1FF032DE980493A
:101AE0004FEA154B09B44FEA144325EA0B4E24EA9A
:101AF00003480FF2042606EB132749083E785FEAF5
:101B0000320203FB0667C7F5000707FB06F64FEA3C
:101B100054374FEAD64606F1020607FB066CCCF1B5
:101B2000005C4FEA1C472CEA074C07FB06F40CFB51
:101B300006F504EB15464FEA961634BF00204FF029
:101B400000404FEAD13706FB07FC4FEA1C4C0CFB68
:101B50000BF7D21B03FB0CF761EB07010CFB0EF735
:101B6000B0EB074072EB17420CFB08F734BFA2EB57
:101B70000742B2EB074261EB17414FEA0C444FEAD0
:101B8000910706FB07FC4FEA1C4C0CFB0BF7B0EB74
:101B9000C74072EB573203FB0CF734BFA2EBC742CE
:101BA000B2EBC74261EB57310CFB0EF7B0EBC7004D
:101BB00072EB57720CFB08F734BFA2EBC702B2EB13
:101BC000C70261EB5771039F4FEA816141EA9211AD
:101BD00004EBCC044FEAD1374FEA826206FB07FCE4
:101BE00042EA90124FEA80604FEA1C4C0CFB0BF764
:101BF000D21B03FB0CF761EB07010CFB0EF7B0EBFC
:101C0000074072EB17420CFB08F734BFA2EB074208
:101C1000B2EB074261EB17414FEA8C554FEA91074F
:101C200004EB9C2406FB07FC4FEA1C4C0CFB0BF757
:101C3000B0EBC74072EB573203FB0CF734BFA2EB9B
:101C4000C742B2EBC74261EB57310CFB0EF7B0EB6A
:101C5000C70072EB57720CFB08F734BFA2EBC70248
:101C6000B2EBC70261EB577115EB4C254FEA81616E
:101C700041EA92114FEA82624FEAD13742EA90126A
:101C800006FB07FC44F100044FEA80604FEA1C4C5D
:101C90000CFB0BF7D21B03FB0CF761EB07010CFBF2
:101CA0000EF7B0EB074072EB17420CFB08F734BF9E
:101CB000A2EB0742B2EB074261EB174115EB1C1593
:101CC0004FEA813141EA92414FEA823242EA904240
:101CD0004FEA80304FEA0C7644F1000448EA0343AF
:101CE0004EEA0B484FF0000EB2EB080C71EB030705
:101CF00024BF624639464EEB0E0E4FF0000B001823
:101D0000524149414BEB0B0BB2EB080C71EB030753
:101D10007BF1000B24BF624639464EEB0E0E4FF0AE
:101D2000000B0018524149414BEB0B0BB2EB080C76
:101D300071EB03077BF1000B24BF624639464EEB83
:101D40000E0E51EA020718BF46F0010616EB0E769A
:101D500055F1000254F1000103D5BDE88901BDE849
:101D60000088BDE88901BDE80048B619524141EB41
:101D70000101A3F10103704780807F7E7D7C7B7A27
:101D80007978777676757473727171706F6E6E6D27
:101D90006C6C6B6A6A6968686766666564646363CD
:101DA00062616160605F5F5E5E5D5D5C5C5B5B5A53
:101DB0005A595958585757565655555554545353C0
:101DC00052525251515050504F4F4F4E4E4D4D4D1B
:101DD0004C4C4C4B4B4B4A4A4A4949494848484766
:101DE00047474746464645454544444444434343A4
:101DF0004342424242414141002B9C4630D477004D
:101E00002BD01CB54FEA370703B44FF010004FF04A
:101E10001001BAF1000F06D0BCF1000FDCBF40F09A
:101E2000080040F008014FF000000FBCBDE8104072
:101E30000BF1010BBBF1010F08BF5FEA170722BFCF
:101E400012F1010211F101014FF0004143F10003D1
:101E500000F0004043EA00007047F9D35708D0E78C
:101E600046EA064613F1400F4FEA16461FDD13F10E
:101E7000200FDFBF16430A46002120335B42BED04D
:101E8000C3F1200746EA064602FA07F74FEA16466C
:101E900046EA0706C3F1200722FA03F201FA07F720
:101EA00021FA03F14FF0000342EA0702A7E746EAEE
:101EB000020646EA06464FEA164646EA0106BCBF57
:101EC00046EA0646360C4FF000034FF000024FF092
:101ED000000194E72DE9804C9A46934670B491E84E
:101EE000380007C831EA400C48BF34EA430C03D538
:101EF000FFF7E6FDFFF780FFF0BCBDE8008C2DE9A1
:101F0000804C9A46934670B491E8380007C810F0A8
:101F1000804F08BF13F0804F03D100F005F8FFF7A2
:101F20006BFFF0BCBDE8008C20F07F4780EA030027
:101F300023F07F4C07EB0C03A3F57C5300F000402B
:101F4000A3F1FE0392F0000F00F0B38095F0000FB4
:101F500000F077802DE901494FEA11404FEA14461D
:101F600021EA004800FB06FC24EA064708FB06F6C7
:101F700007FB08F800FB07F718EB06484CEB164C7C
:101F80004FEA124B18EB07484FEA15464CEB174047
:101F900022EA0B4E0BFB06FC25EA06470EFB06F673
:101FA00007FB0EFE0BFB07F71EEB064E4CEB164C29
:101FB0004FF000061EEB074E4CEB174B18EB0B08CF
:101FC00040F1000018EB0E0B58EB000840F1000048
:101FD0008F1A4FF000013CBFC943661B14BFB5EB1D
:101FE000040C00213CBFC943F61B4FEA17444EEADC
:101FF0008E0E27EA04454FEA1C4704FB07622CEAD1
:10200000074C05FB07F70CFB05F604FB0CFC16EB75
:10201000074642EB174216EB0C4642EB1C421BEB09
:10202000060658EB0202414146EA9E0601D5BDE88C
:102030000189B619524141EB0101A3F10103BDE849
:1020400001894FEA14454FEA114724EA054621EA7F
:10205000074C05FB07F406FB07F70CFB06F105FB35
:102060000CFC11EB074144EB17444FEA124711EB0C
:102070000C4144EB1C4422EA074C05FB07F206FB2B
:1020800007F70CFB06F605FB0CFC16EB074642EBCC
:10209000174216EB0C4642EB1C456A1854F100013E
:1020A00048BF7047B619524141EB0101A3F101034A
:1020B000704795F0000F37D04FEA11424FEA1447AE
:1020C00021EA024624EA074C02FB07F106FB07F768
:1020D0000CFB06F402FB0CFC14EB074441EB17412C
:1020E0004FEA154714EB0C4441EB1C4125EA074C21
:1020F00002FB07F506FB07F70CFB06F602FB0CFCE0
:1021000016EB074645EB174516EB0C4645EB1C4214
:10211000121951F1000148BF7047B619524141EB05
:102120000101A3F1010370474FEA14454FEA11473B
:1021300024EA054621EA074C05FB07F106FB07F7F1
:102140000CFB06F24FF0000605FB0CFC12EB0742FD
:1021500041EB174112EB0C4251EB1C4148BF704759
:10216000921841EB0101A3F1010370472DE9F043FF
:102170002DED028BADF68C4DFA48008800287DD0FD
:10218000F9480078002879D100270024A4E104EB65
:102190004400F649085C00F00F00012817D104EB59
:1021A000440001440A88897842EA014040F3131050
:1021B000EF490860601C00EB4000EC4901440A88CC
:1021C000897842EA014040F31310E949486004EB82
:1021D0004400E649085C00F00F0002280AD104EB35
:1021E000440001440A88897842EA014040F3131010
:1021F000DF49886004EB4400DC49085C00F00F0014
:10220000032817D104EB440001440A88897842EA84
:10221000014040F31310D649C860601C00EB400039
:10222000D24901440A88897842EA014040F31310F8
:10223000CF49086104EB4400CC49085C00F00F0072
:1022400004280CD104EB440001440A88897842EA4E
:10225000014040F31310C6494861781CC7B2012FF2
:102260007ED1C3480068C249C968401ACDF8800CC5
:10227000BF484068BE490969401A00E035E1CDF821
:10228000840CBB488068BA494969401ACDF8880C6B
:102290000DF5486003C80844DDF8881C084400EECA
:1022A000100AB8EEC00AF0EE080A80EE201AB0EE6E
:1022B000418AB0480088B0F57A7F02DB0020AD4942
:1022C0000880AD48AD49098800EB810080ED008AA7
:1022D000AA480088B0F5C87F08DBA8480088A0F5A8
:1022E000C870A54901EB800080ED008AA3480088F2
:1022F000401CA2490880A2480088401C80B2A04926
:102300000880322879DB9D480088B0F5C87FF9DB6A
:102310004FF4C8610DF5C860FEF70DFB4FF4C861BE
:102320006846FEF708FB002019E094490988A1F5EA
:10233000C8710144904A02EB810191ED000A8F4976
:102340000988A1F5C87102EB8101D1ED000A30EED8
:10235000600A694601EB800181ED000A401C00E043
:10236000B9E0B0F5C87FE0DB4FF4C8730DF5C86283
:10237000694684480CF0C4FB00208149088000BFF6
:102380000DE000F5AF710DF5C86202EB810191ED32
:10239000000A7D4901EB800181ED000A401C3228D2
:1023A000EFDB7A490DF5C86000F004FA784908704F
:1023B0007848007850B9002004E07449095C754AF7
:1023C0001154401C724909788842F6DB4FF000082E
:1023D000002510211FE0002000BF6C4A125C0B1882
:1023E000DFF8B0C11CF803309A4207D1804501DA0A
:1023F0008046CDB2421CD0B201E062E009E0644AFE
:102400001278521E824204DD002802DD0A18112AC9
:10241000E3DB00BF491E0029DDDA5D48007828446F
:10242000113846B2002E0DDA284605E0411B574A06
:10243000515C584A1154401C55490978294481423D
:10244000F4DC3BE0002004E03118524A515C1154A6
:10245000401C4F490978C1F111018142F4DC4C491B
:102460000978C1F1110009E0A0F11101484A127880
:102470001144464A515C474A1154401C1128F3DB71
:10248000444800F0A1FB10EE109A484610F004FDFD
:10249000414A03C23F4800F057FA10EE109A4846EE
:1024A00010F0FAFC3D4A03C23A4800F01DF910EE64
:1024B000109A484610F0F0FC394A03C200F028FC9C
:1024C00000BF2E480088B0F5487F03DB4FF4C8708A
:1024D0002A49088000BFA41C224800888442FFF6D5
:1024E00056AE00201F49088000BF1F480078012811
:1024F0006CD12C480078012872D12B48007880B329
:10250000002465E0294951F824108813002801DBD4
:10251000014600E0414242F21072914257DD06F05E
:10252000F1FD23A12648FDF7BBFF00204FF6FF7108
:10253000CDE901102348406800902248204A9621A6
:10254000036800200AF0F4F8012002F079F8022074
:102550001449087001200749088000201A490870B2
:102560003AE03DE03E0000209C000020004A0020B0
:10257000004D00206600002064190220B4000020F5
:10258000B60000208C110220E425022081110220D7
:1025900088000020701102207000002078000020C8
:1025A000800000209D0000203D0000209C4900206C
:1025B0006461746120736176696E672E2E2E00004F
:1025C0002A11022014000020640000204AE0641C4C
:1025D00038480078844295DB00BF002035490870F8
:1025E00035480078022827D1002032490870334846
:1025F0000088322857DB06F085FD01F0F5F901204F
:102600002E49088003202C4908702DA12F48FDF782
:1026100047FF00204FF6FF71CDE901102C484068BC
:1026200000902B48294AB421036800200AF080F862
:10263000012002F005F836E01F480078032832D167
:1026400000F0F4FD1D480088B0F5967F2BDB0220DA
:102650002049087006F056FD1F48007818B301F0B5
:1026600001FB20E01B48007802280CD103221BA1AB
:102670001B48FEF7A2F8B0B900201A4908700320E1
:10268000144908700FE013480078032805D100F0C2
:10269000E9FF04200F49087005E00E48007804287F
:1026A00001D101F04FF80DF68C4DBDEC028BBDE869
:1026B000F08300003D0000209D0000206600002007
:1026C0007761697420333020736563002A1102201A
:1026D000140000209C0000208C0000205343530075
:1026E000314D00204400002030B52DED068B89B01F
:1026F0000546202101A8FEF71EF9012425E0295DE9
:10270000601E285C091A601E01AA22F81010611EC2
:1027100032F9110010F009F841EC1A0B9FED231B60
:10272000B0EE4A0AF0EE6A0A0BF00EF9B0EE409AEB
:10273000F0EE609A51EC190B0FF09AFF01B2601E97
:1027400001AA22F81010601CC4B2102CD7DB01A81B
:102750000EF012FD00EE100AB8EEC00AF2EE0E0AFC
:1027600080EE201A11EE104A204610F095FB41EC45
:102770001A0BB0EE4A0AF0EE6A0A0BF07DFFB0EEDB
:10278000409AF0EE609A51EC190B0FF02BFD08EE19
:10279000100A28460EF0C6FCC8EE000AB0EE608AA9
:1027A000B0EE480A09B0BDEC068B30BD0000000059
:1027B000000000402DE9F0472DED048BADF5167DAE
:1027C000064688460024C82164A8FEF7B4F84FF4F2
:1027D000C8716846FEF7AFF89FED580AB0EE409A10
:1027E0004FF00F0AA146642546E0681E06EB800004
:1027F00090ED000A06EB8500D0ED000AB4EEE00A89
:10280000F1EE10FA35D209F1010000F0FF0906EBF4
:10281000850090ED000A681C06EB8000D0ED000AF0
:10282000B4EEE00AF1EE10FA25DD48460FF094FF11
:1028300041EC180B9FED420B53EC102B10F0DAF823
:1028400019D206EB850090ED000AB5EEC00AF1EE54
:1028500010FA10DD64A921F8145006EB850090ED04
:10286000000A684600EB840080ED000A601CC4B2D8
:1028700001E04FF000096D1CB5F5C77FB5DD002004
:1028800040E064AA411C32F8111032F81020891A75
:10289000514536DC6A4602EB800292ED000A6B4637
:1028A000421C03EB8202D2ED000AB4EEE00AF1EE24
:1028B00010FA01DD411C00E0014611E06B464A1CA4
:1028C00003EB820292ED000A6A4602EB810282ED7E
:1028D000000A64AB4A1C33F8122023F81120491C6B
:1028E000621E8A42EADC9FED150A6B4603EB820208
:1028F00082ED000A0023621E64AD25F81230D4B2C6
:1029000000BF401C611E8142BBDC002700200BE0A1
:1029100064AA411C12F8111012F81020891A08F844
:102920000710791CCFB2401C611E8142F0DC384692
:102930000DF5167DBDEC048BBDE8F08700000000AE
:1029400000000000000014402DE9F0472DED0E8B33
:10295000B6B0824601259FED980AB0EE409A3C2120
:1029600027A8FDF7E8FF782109A8FDF7E4FF504606
:102970000EF0D8FBF0EE409A00264FF00009002040
:1029800029E04119491E1AF8011000EE101AB8EE9C
:10299000400AC0EE290A27A901EB8001C1ED000A17
:1029A000002113E042181AF8022000EE102AB8EEB7
:1029B000400AC0EE290AC1EB011209AB03EB820207
:1029C00002EB8002C2ED000A4A1CD1B26A1C91429D
:1029D000E8DB411CC8B2C5F110018142D1DC0027FF
:1029E000B4E00020059006900790089001900290B6
:1029F00003900490002497E0BC427DD09FED6F0AC5
:102A0000B0EE40EA9FED6D0AF0EE408A27A800EB99
:102A1000870090ED000A27A800EB8400D0ED000AA3
:102A200030EE600A10EE101A084610F035FA41EC4C
:102A30001B0BB0EE4B0AF0EE6B0A0AF0C3FEB0EED1
:102A400040AAF0EE60AA51EC1A0B0FF0CBFB0EEE91
:102A5000100A4FF0000839E0C8EB081009AA02EB91
:102A6000800000EB870090ED000AC8EB081002EB35
:102A7000800000EB8400D0ED000A30EE600A10EE1A
:102A8000101A084610F008FA41EC1D0B9FED4C1B84
:102A9000B0EE4D0AF0EE6D0A0AF056FFB0EE40BA05
:102AA000F0EE60BA18EE900A10F0F6F941EC1C0B4B
:102AB00053EC1B2B0FF0C8FB41EC1A0B0FF092FBF1
:102AC00008EE900A08F1010000F0FF08681C80453C
:102AD000C2DB18EE900A10F0DFF941EC1B0BB0EEF0
:102AE0004B0AF0EE6B0A0BF0C7FDB0EE40AAF0EE19
:102AF00060AA51EC1A0B00E014E00FF073FB08EE33
:102B0000900AB4EEC9EAF1EE10FA02D8012005A944
:102B10000855F4EEC98AF1EE10FA02D8012001A995
:102B2000085500BF601CC4B2C5F11000A0423FF7B9
:102B300063AF05A80EF02EFB304486B201A80EF05C
:102B400029FB48441FFA80F9781CC7B2C5F1100070
:102B5000B8423FF746AF16B99FED188A25E0B9F1A4
:102B6000000F10D100EE106AB8EE400AF7EE000A2E
:102B700080EE801AF0EE418AB0EE680A0AF02CFE70
:102B8000B1EE408A11E000EE109AF8EE400A00EE35
:102B9000106AB8EE400A80EE801AF0EE418AB0EE7C
:102BA000680A0AF019FEB1EE408AB0EE480A36B063
:102BB000BDEC0E8BBDE8F0878FC2753D00000000B4
:102BC00000000000000000402DE9F0432DED068BD1
:102BD00095B0064630460EF097FA804630460EF025
:102BE000BDFA0746002011901290139014909FEDAB
:102BF000460AB0EE408A402101A8FDF79CFEA8EBF2
:102C0000070000EE100AB8EEC00AF3EE000A80EEEC
:102C1000201AF0EE418AF5EEC08AF1EE10FA06D1E4
:102C2000B0EE680A15B0BDEC068BBDE8F083002459
:102C300024E0305DC01B00EE100AB8EEC00AC0EE02
:102C4000280A10EE909A484610F026F941EC1A0B2B
:102C5000B0EE4A0AF0EE6A0A0BF09EFCB0EE409A23
:102C6000F0EE609A51EC190B0FF032FDC5B211A8CD
:102C7000405D401C11A94855601CC4B2102CD8DB23
:102C8000002010E011A9095C00EE101AB8EE400A0D
:102C9000F3EE000A80EE201A01A901EB800181ED1C
:102CA000001A411CC8B21028ECDB00241FE001A868
:102CB00000EB840090ED000AB5EEC00AF1EE10FAC8
:102CC00013DD01A800EB8400D0ED000AB0EE600A2D
:102CD0000AF082FD01A800EB840090ED001AF0EEEE
:102CE000480A41EE000AB0EE608A601CC4B2102CA3
:102CF000DDDB9FED060A0AF06FFDC8EE000AB0EEBC
:102D0000608AB0EE480A8DE7000000000000803DB8
:102D100000B585B037A13C48FDF7C2FB00204FF657
:102D2000FF71CDE901103948406800903748364AB4
:102D3000C8210368002009F0FBFC012001F080FCA1
:102D40009FED330B53EC102B334890ED000B51ECFF
:102D5000100B0FF04FFE20D29FED300B53EC102BD9
:102D6000304890ED000B51EC100B0FF043FE14D2E5
:102D70009FED2D0B53EC102B2D4890ED000B51ECDB
:102D8000100B0FF037FE08D206F0BCF901202949DC
:102D9000087000202849088027E02848007804901F
:102DA000234890ED000B8DED020B1E4890ED000BBB
:102DB0008DED000B184890ED000B53EC102B20A16B
:102DC0001148FDF76DFB00204FF6FF71CDE90110B2
:102DD0000E48406800900D480B4ADC210368002033
:102DE00009F0A6FC012001F02BFC0BF01FFE05B042
:102DF00000BD00007368614520736D704520524D21
:102E000053534420727269002A1102200C000020E2
:102E1000333333333333E33F7000002000000000CE
:102E20000000F83F78000020000000000000D03FC4
:102E3000800000209C000020660000208800002008
:102E400025312E3032662025312E30326620253154
:102E50002E303266202020256400000010B50124A9
:102E60002103034801F024FD00B10024204610BDD9
:102E7000000402407047000010B504462146024895
:102E800003F0B8F810BD00005401002010B504484C
:102E900003F0C3F8042801D0012010BD0020FCE796
:102EA0005401002010B5002400F014F8012801D0CE
:102EB000012010BD064803F0C5F9044634B94FF4AB
:102EC0000061034802F05CFF00B101242046F0E7F6
:102ED0005401002008B501200090FFF7BFFF08B99A
:102EE000002000909DF8000008BD00002DE9F04191
:102EF00004460D461646002733462A462146044816
:102F000003F0D4FA00B101273846BDE8F081000093
:102F1000540100200120014908607047C0000020D2
:102F20002DE9F04104460D461646002733462A4651
:102F30002146044803F06CFB00B101273846BDE888
:102F4000F081000054010020012001490860704711
:102F5000BC00002010B500220821824801F0B0FC1E
:102F6000642001F06DFB80A0FDF78EFA642001F073
:102F700067FB00E010BD7D4800780028FAD00020F3
:102F80007A4908707AA0FDF77FFA642001F058FBB7
:102F900000E0EFE7754800780028FAD00020734978
:102FA0000870082276A17948FDF707FC002872D145
:102FB00077A0FDF769FA642001F042FB00E0D9E751
:102FC0006A4800780028FAD0002068490870032277
:102FD00074A16E48FDF7F1FB28B14FF49670724969
:102FE000088000F061FD71A0FDF74EFA642001F049
:102FF00027FB00E0BEE75D4800780028FAD00020FB
:103000005A490870032267A16048FDF7D6FB28B132
:103010004FF496706449088000F046FD68A0FDF703
:1030200033FA642001F00CFB00E0A3E74F4800787E
:103030000028FAD000204D490870032259A15348B6
:10304000FDF7BBFB28B14FF496705749088000F09C
:103050002BFD61A0FDF718FA642001F0F1FA00E001
:1030600088E7424800780028FAD000203F490870DD
:1030700003224CA14548FDF7A0FB28B14FF4967000
:103080004949088000F010FD57A0FDF7FDF96420C4
:1030900001F0D6FA01E04FE06CE7344800780028F0
:1030A000FAD000203149087003223EA13748FDF7CD
:1030B00084FB28B14FF496703B49088000F0F4FC83
:1030C0004DA0FDF7E1F9642001F0BAFA00E051E704
:1030D000264800780028FAD00020244908700322EE
:1030E00030A12A48FDF769FB28B14FF496702E49AC
:1030F000088000F0D9FC45A0FDF7C6F9642001F076
:103100009FFA00E036E7194800780028FAD000203E
:1031100016490870032223A11C48FDF74EFB28B175
:103120004FF496702049088000F0BEFC4FF47A708E
:1031300001F086FA0AF026FB082237A11348FDF7B2
:103140003CFB28B14FF496701749088000F0ACFCA6
:1031500001220821034801F0B3FB01203149087026
:1031600000BF07E700000240415400004400002077
:1031700041542B44455653575645523F00000000DA
:103180002B4F4B3D56312E3000000000184D0020D3
:1031900041542B4445564D414E55463D42414D49C3
:1031A000000000002B4F4B006800002041542B44CE
:1031B000455653455249414C3D30303031000000B6
:1031C00041542B4445564D4F44454C3D5265686132
:1031D0006230312D3030310041542B444556494442
:1031E0003D3030303100000041542B4E414D453DC3
:1031F000526568616230310041542B444556535743
:103200005645523D56312E310000000041542B529C
:1032100045534554000000002B4F4B3D56312E3195
:10322000000000008900002000BFFEE77FB5954840
:10323000007801287ED19448008800287BD00025A2
:1032400000248FE004EB44009049085C00F00F007C
:10325000012817D104EB440001440A88897842EA26
:10326000014040F313108A490860601C00EB4000E5
:10327000864901440A88897842EA014040F31310E4
:103280008349486004EB44008049085C00F00F006B
:1032900002280AD104EB440001440A88897842EAF2
:1032A000014040F313107A49886004EB44007749E9
:1032B000085C00F00F00032817D104EB4400014420
:1032C0000A88897842EA014040F313107049C860C7
:1032D000601C00EB40006D4901440A88897842EA8D
:1032E000014040F313106A49086104EB4400674948
:1032F000085C00F00F0004280CD104EB44000144EA
:103300000A88897842EA014040F313106049486115
:10331000681CC5B2012D24D15D4800685C49C968AC
:10332000401A01905A48406859490969401A029068
:10333000574801E0A4E01EE0806855494969401AF9
:1033400003900398009053A15548DDE90123FDF750
:10335000A7F8544952480DF0C7F864215048FDF7CA
:10336000EAFAA41C484800888442FFF66BAF0020AC
:103370004549088000BF4C48007860B3002423E032
:103380004A4850F82400801300280CDD474850F8C4
:10339000240080134142454850F8240061F39F30D7
:1033A000424941F82400414850F82400821340A1CA
:1033B0003B48FDF775F83F4939480DF095F8642111
:1033C0003748FDF7B8FA641C374800788442D7DBE9
:1033D00000203549087038480088C0F30A00E0B37F
:1033E000002442E004EB4400052101EB4000334996
:1033F00031F9100004EB4401042202EB41012F4A91
:1034000032F9111004EB4402032303EB42022B4B6D
:1034100033F9122004EB4403022505EB4303274D47
:1034200035F91330CDE90032CDE9021004EB440048
:10343000012101EB4000294631F9103004EB440032
:10344000002101EB4000294631F910201CA114484D
:10345000FDF726F81F49124800E00EE00DF044F891
:1034600064210F48FDF767FA641C1348B0F90000A7
:10347000062190FBF1F0A042B4DC00200E49088048
:103480007FBD00008B0000203E000020004A00208D
:10349000004D002025642C25642C25640A000000C2
:1034A00038490020882700203D0000209C4900204A
:1034B00025640A00581700205E0000204A4D0020B5
:1034C00025642C25642C25642C25642C25642C254E
:1034D000640A0000B837002010B5024800F0D0FEA2
:1034E00010BD0000C006002010B5024800F0C8FE64
:1034F00010BD0000A003002010B5024800F0C0FE7F
:1035000010BD00000004002010B5024800F0B8FE15
:1035100010BD00006004002010B5024800F0B0FEAD
:1035200010BD0000C004002010B5024800F0A8FE45
:1035300010BD0000D801002010B5024800F0A0FE28
:1035400010BD00002005002010B5024800F098FED4
:1035500010BD0000380200200146087810381823FA
:10356000B0FBF3F20848805CC865032A05D90868F7
:103570006FF30900001D886503E008686FF3090018
:103580008865886D7047000070430208014600207E
:103590008A6A8B69CBB932B1012A0DD0022A03D0D5
:1035A000032A10D10EE000BFCB6A03F08073B3F1A1
:1035B000807F00D1012007E0CB6AB3F1C07F00D14A
:1035C000012001E000E000BF34E08B69B3F5005F4B
:1035D0001AD132B1012A07D0022A03D0032A11D10D
:1035E0000AE000BF01200EE0CB6A03F08073B3F164
:1035F000807F00D1012006E0CB6AB3F1C07F00D10B
:10360000012000E000BF15E032B1012A05D0022AF6
:1036100004D0032A0CD103E000BF00BF012008E062
:10362000CB6A03F08073B3F1807F00D1012000E00A
:1036300000BF00BF704730B50468246824F48024BC
:1036400005682C60046863608468402C04D10468B9
:10365000A2600468E16003E00468A1600468E260BD
:1036600030BD000010B518480078042803D10020B0
:1036700000F09CFC27E014480078062823D113486A
:10368000007818B91248007800F090FC0F480078D4
:10369000012809D10E490978491EC8B200F086FCFC
:1036A0000B48007800F082FC0848007802280AD114
:1036B000012404E0204600F079FC601CC4B20448F8
:1036C00000788442F6DD10BD9600002098000020AE
:1036D0006300002010B51848007802280AD0164868
:1036E000007838B114480078052803D012480078D3
:1036F000042801D107F03EFB0F48007803280AD0C8
:103700000D48007838B10C480078052803D00B48E4
:103710000078012801D100F089F90748007838B114
:1037200005480078052803D004480078012801D115
:1037300004F01EFE10BD0000960000209C0000203A
:10374000704700002DE9F0472DED0C8B002692A06C
:103750000CF081FC924908700846007840B1084698
:103760000078082804D0CD208E49088000F09CF90C
:1037700089A18D480CF071FE8949087008460078CF
:1037800040B185A00CF067FC20B1CD2085490880B0
:1037900000F08AF94FF48C718448FDF7CCF8834926
:1037A00081480CF0A6FF7E4908700846007820B1D9
:1037B000CD207C49088000F077F97C48007A1028F9
:1037C00003D07A48007A202801D1022609E0774800
:1037D000007A08B9012604E0CD207249088000F083
:1037E00063F971480CF0DEFB71A16F480CF035FEF7
:1037F000C3E04FF48C716D48FDF79DF86B496A4842
:103800000CF0E3FB6948807D0028F1D1012269A119
:1038100066481630FDF7B6F867A164481630FCF725
:1038200077FF90B965A15CA00CF08AFF5C49087035
:1038300064A00CF010FC18B95948007800287DD01D
:10384000CD205849088000F02FF960A15748163064
:10385000FCF74EFF07460620FCF748FD05463846B4
:10386000FCF78CFF00F0FF0900205949087038462A
:10387000FCF784FF401EC4B235E03846FCF77EFFFB
:10388000001BA0F1010840460EF066FF41EC1D0B45
:10389000B0EE4D1AF0EE6D1A9FED4E0B0AF054F893
:1038A000B0EE40BAF0EE60BA395DA1F130000EF032
:1038B0003CFF41EC1C0B53EC1B2B0EF09DFF41EC2D
:1038C000190B434800780EF047FF41EC1A0B53ECFC
:1038D000192B0EF0B9FC41EC180B0EF0F9FE3C4927
:1038E0000870601EC4B2022CC7DC00BF38480078E4
:1038F000401C37490870002028600846027837A12C
:103900002846FCF7CDFD294623A00CF019FF2449D9
:103910000870084600780828E8D00846007820B1EA
:10392000CD202049088000F0BFF8022E0ED125A03E
:103930000CF091FB1A490870084600E01CE0007882
:10394000C8B1CD201749088000F0AEF8012E12D181
:103950001F480078401E1E4908700FA128460CF031
:10396000EFFE0F4908700846007820B1CD200D49C0
:10397000088000F099F800BF00E03AE700BF0A486D
:103980000CF010FB17480078401C16490870BDEC7D
:103990000C8BBDE8F08700002F64617461000000AB
:1039A0003800002068000020E84700202048002060
:1039B0002F0000004F0000004F4C44002F4F4C449C
:1039C000310000006461746100000000200000000C
:1039D0006300002000000000000024402F4F4C44F2
:1039E000256400006200002010B50DF08EFF06F087
:1039F00061FB1E210A2006F0D7FE08480078042843
:103A000007D10748007820B90649074806F052F95F
:103A100003E00449044805F037FF10BD960000207C
:103A20009C0000205A0000204A00002010B51449D4
:103A300001200DF0F7FE1248407800F08000B8B188
:103A4000102110480DF068FF0F49087008460078F3
:103A500070B910200870002008E00A4931F82010E1
:103A6000C1F30D01074A42F82010401C1028F4DB76
:103A70000348407800F0400008B1FFF7B5FF10BDE3
:103A8000390000209C4900203D00002010B5102086
:103A900000F008FE10BD10B5202000F003FE8020CD
:103AA00000F000FE10BD00000EB534480088CA28A2
:103AB00032D00CDC662820D004DC642813D06528C2
:103AC00043D115E0C8281DD0C9283ED11FE0CC281D
:103AD00027D0CD282AD0B0F5967F2CD0A0F2911017
:103AE000002832D12CE026A12748FCF7D9FC2CE095
:103AF00026A12548FCF7D4FC27E026A12248FCF7A4
:103B0000CFFC22E027A12048FCF7CAFC1DE028A139
:103B10001D48FCF7C5FC18E029A11B48FCF7C0FCB8
:103B200013E02AA11848FCF7BBFC0EE02BA11648B5
:103B3000FCF7B6FC09E02CA11348FCF7B1FC04E04B
:103B40002BA11148FCF7ACFC00BF00BF00204EF2D7
:103B50000701CDE9011028484068009026480A4A2C
:103B6000642103680A2008F0E3FD40F6B83000F055
:103B700067FD72B601E009F005FEFCE76800002071
:103B80004543472065727200521102205050472071
:103B900065727200505047204649464F2065727248
:103BA00000000000534420627366206572720000BA
:103BB0005344204D6F756E742065727200000000D2
:103BC0005344204649464F20657272005344206397
:103BD0006C6F7365206572720000000053442044CE
:103BE0006972206572720000426C65206572720015
:103BF000494D5520657272001400002030B504460E
:103C00000D4600222946204600F002F830BD000093
:103C1000F0B50346012500241148407A01281CDA3A
:103C200000200F4E767A0E4FB8553846467A001D62
:103C300040F82630001F467A083082553E46707A9A
:103C4000461C7E72044604F1300008703A20487029
:103C50002F2088700020C87000252846F0BD000085
:103C60003C29022010B500201649087016480CF0B7
:103C700083F9164908700846007820B1CC20144911
:103C80000880FFF711FF13480078042819D0124864
:103C90000CF072F90D4908700846007820B1CC206C
:103CA0000B490880FFF700FF0C480CF065F9074945
:103CB00008700846007820B1CC2005490880FFF73D
:103CC000F3FE10BD8C0000205817002038000020A3
:103CD000680000209600002088270020B8370020C8
:103CE00010B504463A480078002870D001203949C0
:103CF00008703948007806284ED1234637480278A4
:103D000037A13C48FCF7CCFB11223A493A480CF069
:103D100083FA3A4908700846007820B1CA20384929
:103D20000880FFF7C1FE64213248FCF704FE2346F9
:103D30002A48027833A12F48FCF7B2FB11222D4903
:103D400035480CF069FA2D4908700846007820B112
:103D5000CA202B490880FFF7A7FE64212548FCF7FD
:103D6000EAFD23461D4802782CA12248FCF798FB67
:103D7000112220492E480CF04FFA204908700846BD
:103D8000007820B1CA201E490880FFF78DFE64210B
:103D90001848FCF7D0FD1AE00F480078042816D127
:103DA00024A11448FCF77CFB1122124912480CF0A4
:103DB00033FA124908700846007820B1CA20104929
:103DC0000880FFF771FE64210A48FCF7B4FD10BDBE
:103DD0008B0000208C000020960000206300002053
:103DE0002F4F4C4425642F4543475F25642E637352
:103DF00076000000384900205817002038000020C5
:103E0000680000202F4F4C4425642F5050475F25F9
:103E1000642E637376000000882700202F4F4C44E7
:103E200025642F494D555F25642E6373760000008D
:103E3000B83700202F646174612F4543475F312EEE
:103E40006373760010B54048007801287BD13F4964
:103E500008703F48007810B9FFF774FC04E03C4854
:103E60000078401C3A4908703948027839A13E4828
:103E7000FCF716FB12223C493C480CF0CDF93C49BA
:103E800008700846007820B1CA203A490880FFF738
:103E90000BFE64213448FCF74EFD37A13248FCF795
:103EA000FFFA324930480CF01FFB64212E48FCF722
:103EB00042FD2748027831A12B48FCF7F1FA122283
:103EC000294933480CF0A8F92949087008460078B8
:103ED00020B1CA2027490880FFF7E6FD6421224867
:103EE000FCF729FD24A12048FCF7DAFA28491E48EE
:103EF0000CF0FAFA64211C48FCF71DFD1448027806
:103F000024A11948FCF7CCFA1222174926480CF0D4
:103F100083F9174908700846007820B1CA2015496E
:103F20000880FFF7C1FD64210F48FCF704FD12A1D2
:103F30000D48FCF7B5FA1C490B480CF0D5FA642182
:103F40000948FCF7F8FC10BD8B0000208C00002015
:103F5000620000202F646174612F4543475F256430
:103F60002E637376000000003849002058170020A7
:103F700038000020680000200A0000002F646174EF
:103F8000612F5050475F25642E6373760000000058
:103F9000882700202F646174612F494D555F256487
:103FA0002E63737600000000B83700202DE9F04141
:103FB0002DED0C8B90B005468D480078062812D167
:103FC0002A468CA10DA8FCF76BFA0DA98B480CF0C2
:103FD00044FA8B49087008460078D0B1CD20894951
:103FE0000880FFF761FD82480078042811D186A17E
:103FF0000DA8FCF755FA0DA980480CF02EFA80495F
:1040000008700846007820B1CD207E490880FFF76F
:104010004BFD4FF48C717E48FCF78DFC7C49774852
:104020000CF067FB764908700846007820B1CD2077
:1040300074490880FFF738FD7548007A102803D0CE
:104040007348007A202875D169480078062872D113
:10405000A3E06F4969480BF0B8FF6D48807D0028E8
:104060006AD16CA16A481730FCF742FB80465F2199
:104070004046FCF743FB461C002067490870304669
:10408000FCF77CFB401E04B234E03046FCF776FBC4
:10409000001B471E38460EF05FFB41EC1D0BB0EED7
:1040A0004D1AF0EE6D1A9FED5D0B09F04DFCB0EE70
:1040B00040BAF0EE60BA315DA1F130000EF035FB90
:1040C00041EC1C0B53EC1B2B0EF096FB41EC190B37
:1040D000514800780EF040FB41EC1A0B53EC192BC1
:1040E0000EF0B2F841EC180B0EF0F2FA4A490870E3
:1040F000601E04B2002CC8DA012448E0E0B2FFF7E9
:10410000EFFD48A0FCF7C0F906E0474800F064FF67
:10411000694646A0FCF7B8F9454A322168460BF0DB
:104120006FFF0028F1D143A0FCF7AEF942A0FCF7E5
:10413000ABF909E056E032E02EE03B4800F04CFFDE
:1041400069463AA0FCF7A0F93C4A322168460BF0D8
:1041500057FF0028F1D137A0FCF796F938A0FCF7FB
:1041600093F906E0304800F037FF69462FA0FCF7CE
:104170008BF9344A322168460BF042FF0028F1D116
:104180002CA0FCF781F9FFF76DFD601C04B22248FA
:1041900000788442B2DD01E000BF5AE722E0144813
:1041A000007804281ED10020FFF79AFD26A0FCF716
:1041B0006BF906E01C4800F00FFF08A91BA0FCF7F4
:1041C00063F91B4A142108A80BF01AFF0028F1D14B
:1041D0001EA0FCF759F94FF47A7000F031FAFFF79E
:1041E00041FD00BF10B0BDEC0C8BBDE8F0810000BC
:1041F000960000202F4F4C4425640000E847002023
:104200003800002068000020646174610000000034
:10421000204800202E000000620000200000000066
:1042200000002440450000004801002025730000E4
:10423000581700204600000050000000882700208A
:1042400049000000B8370020450A0000460A000077
:10425000014691F83500022803D0802048650120EE
:104260007047052081F835000868006820F00100DB
:104270000A6810600020F3E70146486D70470000AF
:10428000F8B50446002000908C4800684FF41651A1
:10429000B0FBF1F7A56D2E6894F85C1008208840FB
:1042A000304098B12068006800F0040070B12068C8
:1042B000006820F004002168086094F85C10082071
:1042C0008840A860606D40F00100606594F85C1063
:1042D00001208840304068B12068406900F08000CB
:1042E00040B194F85C1001208840A860606D40F0F7
:1042F0000200606594F85C1004208840304068B18A
:104300002068006800F0020040B194F85C100420BE
:104310008840A860606D40F00400606594F85C100F
:1043200010208840304078B32068006800F0080012
:1043300050B394F85C1010208840A8602068006892
:1043400000F4802080B12068006800F4002028B9C3
:10435000206CC8B12046216C884715E0A06C98B14C
:104360002046A16C88470FE02068006800F4807048
:1043700028B92068006820F0080021680860206CD7
:1043800010B12046216C884794F85C1020208840AA
:104390003040002865D02068006800F01000002838
:1043A0005FD094F85C1020208840A86094F8350015
:1043B000052828D12068006820F0160021680860D0
:1043C0002068406920F0800021684861206C08B9AD
:1043D000A06C28B12068006820F0080021680860FF
:1043E00094F85C103F208840A86000BF002084F84B
:1043F000340000BF012084F83500206D10B1204644
:10440000216D8847F8BD2068006800F4802080B1E5
:104410002068006800F4002028B9606C10B12046C4
:10442000616C88471DE0E06BD8B12046E16B88479E
:1044300017E02068006800F4807068B920680068A0
:1044400020F010002168086000BF002084F83400CC
:1044500000BF012084F83500E06B10B12046E16B0D
:104460008847606D38B3606D00F00100F0B1052041
:1044700084F835002068006820F001002168086099
:1044800000BF0098401C0090B84200D905E02068A9
:10449000006800F001000028F3D100BF00BF002039
:1044A00084F8340000BF012084F83500E06C10B1BE
:1044B0002046E16C884700BFA4E70000D800002038
:1044C0002DE9F0410446002500F000FA074614B932
:1044D0000120BDE8F081606A00B100BF00BF00208C
:1044E00084F8340000BF022084F83500206800689A
:1044F00020F00100216808600AE000F0E7F9C01B25
:10450000052805D920206065032084F83500E0E700
:104510002068006800F001000028EED120680568DE
:1045200021480540D4E901010843E16808432169B5
:10453000084361690843A1690843E1690843216AA6
:1045400008430543606A042803D1D4E90B010843FA
:104550000543206805602068456925F00705606A05
:104560000543606A04280DD1A06A0543E06A48B19A
:104570002046FFF70BF828B140206065012084F841
:104580003500A6E7206845612046FEF7E5FF0646B0
:1045900094F85C103F208840B060002060650120E6
:1045A00084F83500002094E73F8010E02DE9F047C3
:1045B00004460D4616461F464FF00008D4F85890A2
:1045C00000BF94F83400012802D10220BDE8F08732
:1045D000012084F8340000BF94F83500012825D16B
:1045E000022084F83500002060653B4632462946AB
:1045F0002046FFF720F894F85C103F208840C9F867
:1046000008002068006840F0160021680860206CEF
:1046100028B12068006840F0080021680860206820
:10462000006840F001002168086006E000BF00203B
:1046300084F8340000BF4FF002084046C6E700008F
:1046400070B5044600F042F906462546681C10B1D4
:1046500004480078054400BF00F038F9801BA842E8
:10466000FAD370BDD4000020202803D10121094ACB
:1046700011700AE0102803D10121074A117004E0EB
:10468000802802D10121054A11700121044A1170CC
:10469000704700008D0000208F0000208E00002059
:1046A0009000002010B5044604480068204020B166
:1046B000024804602046FFF7D7FF10BD143C0140BC
:1046C000F8B502460B460025002400200021D7E063
:1046D000012606FA01F51E6806EA0504AC4273D10C
:1046E0005E68012E08D05E68022E05D05E68112E2D
:1046F00002D05E68122E13D190684F000326BE4090
:10470000B0434F00DE68BE403043906050680126E1
:104710008E40B0431E79C6F300168E403043506081
:10472000D0684F000326BE40B0434F009E68BE4095
:104730003043D0605E68022E02D05E68122E13D124
:10474000CF0802F1200656F827004E07F70E0F2675
:10475000BE40B0434F07FF0E1E69BE403043CF0836
:1047600002F1200646F8270010684F000326BE40DD
:10477000B0431E7906F003064F00BE403043106080
:104780005E6806F08056B6F1805F78D100BF0026E3
:1047900000963D4E366846F480463B4F3E603E46AE
:1047A000366806F48046009600BF00BF374E8F087B
:1047B00056F827008E07370F0F26BE40B043344E01
:1047C000B24202D100261FE059E0324EB24201D17E
:1047D000012619E0304EB24201D1022614E02F4EDC
:1047E000B24201D103260FE02D4EB24201D1042680
:1047F0000AE02C4EB24201D1052605E02A4EB24213
:1048000001D1062600E007268F073F0FBE40304348
:104810001E4E8F0846F82700244E3068A0435E687D
:1048200006F48036B6F5803F00D120431F4E30603D
:10483000361D3068A0435E6806F40036B6F5003FCA
:1048400000D12043194E361D3060361D3068A0431C
:104850005E6806F48016B6F5801F00D12043134E23
:1048600008363060361D3068A0435E6806F40016D6
:10487000B6F5001F00D120430C4E0C363060491CA9
:104880001029FFF425AFF8BD443802400838014034
:10489000000002400004024000080240000C0240F8
:1048A000001002400014024000180240003C014089
:1048B000024613690B400BB1012000E00020704755
:1048C0000AB1816101E00B0483617047014800680F
:1048D00070470000CC00002070B504460CB90120E0
:1048E00070BD94F83D0028B9002084F83C002046B3
:1048F00000F006FB242084F83D002068006820F0CA
:104900000100216808602068006840F400402168C8
:1049100008602068006820F400402168086000F00A
:104920008DFF05465C496068884206D85B48854231
:1049300001D2012007E0002005E05948854201D25C
:10494000012000E00020012800D1C9E75548B5FB4F
:10495000F0F62068406820F03F003043216848604E
:104960004D496068884201D8701C07E04FF496708A
:1049700070434FF47A71B0FBF1F0401C2168096A72
:1049800021F03F010843216808624349606888427A
:1049900014D8681E61684900B0FBF1F0401CC0F3F8
:1049A0000B00042801D204203DE0681E6168490024
:1049B000B0FBF1F0401CC0F30B0034E0A06838B944
:1049C000681E616801EB4101B0FBF1F0401C0AE098
:1049D000681E616801EBC10202EB0111B0FBF1F04E
:1049E000401C40F48040C0F30B0008B901201AE0DD
:1049F000A06848B9681E616801EB4101B0FBF1F0A5
:104A0000401CC0F30B000CE0681E616801EBC102A2
:104A100002EB0111B0FBF1F0401CC0F30B0040F4BD
:104A2000804040F400402168C9694CF6FF72914310
:104A300008432168C861D4E907010843216809686F
:104A400021F0C001084321680860D4E9031008433D
:104A50002168896848F2FF329143084321688860E1
:104A6000D4E9050108432168C96821F0FF01084322
:104A70002168C8602068006840F001002168086073
:104A800000202064202084F83D000020206384F86A
:104A90003E0000BF24E70000A086010080841E00C5
:104AA00000093D0040420F002DE9FC5F04460F461F
:104AB00090469946DDE90CAB0E9EFFF707FF0546D1
:104AC00094F83D00202870D119230122B0492046D6
:104AD000009503F039FB10B10220BDE8FC9F00BF38
:104AE00094F83C00012801D10220F6E7012084F867
:104AF0003C0000BF2068006800F0010028B9206871
:104B0000006840F00100216808602068006820F417
:104B1000006021680860222084F83D00402084F86D
:104B20003E0000202064C4F824A0A4F82AB0608DC0
:104B300020859848E0624B46424639462046CDE9FA
:104B4000006503F0B9F908B10120C6E7208D88B9E6
:104B500000BF0020019020684069019020688069B2
:104B6000019000BF00BF2068006840F40070216819
:104B7000086040E0208D012818D12068006820F4EA
:104B800080602168086000BF0020019020684069B3
:104B9000019020688069019000BF00BF2068006814
:104BA00040F400702168086025E0EFE0208D0228C5
:104BB00016D12068006820F48060216808602068B1
:104BC000006840F400602168086000BF0020019088
:104BD00020684069019020688069019000BF0AE068
:104BE00000BF002001902068406901902068806922
:104BF000019000BF00BFBAE0208D03287ED8208D31
:104C0000012815D12A463146204603F042FB08B15F
:104C1000012062E720680069616A0870606A401CD0
:104C20006062208D401E2085608D401E60859EE064
:104C3000208D02282AD1334600225749204600956C
:104C400003F082FA08B1012047E72068006840F4C9
:104C500000702168086020680069616A0870606AF5
:104C6000401C6062208D401E2085608D401E608546
:104C700020680069616A0870606A401C6062208D6B
:104C8000401E2085608D401E608570E03346002206
:104C900041492046009503F057FA08B101201CE76E
:104CA0002068006820F4806021680860206800693E
:104CB000616A0870606A401C6062208D401E208519
:104CC000608D401E608533460022334920460095A2
:104CD00003F03AFA08B10120FFE62068006840F4CA
:104CE00000702168086020680069616A0870606A65
:104CF000401C6062208D401E208500E010E0608D29
:104D0000401E608520680069616A0870606A401C06
:104D10006062208D401E2085608D401E608526E0EB
:104D20002A463146204603F0B4FA08B10120D4E601
:104D300020680069616A0870606A401C6062208DAA
:104D4000401E2085608D401E608520684069C0F34C
:104D5000800060B120680069616A0870606A401C68
:104D60006062208D401E2085608D401E6085208DF4
:104D700000287FF441AF202084F83D00002084F813
:104D80003E0000BF84F83C0000BFA6E60220A4E677
:104D9000020010000000FFFF040001002DE9FC5F8D
:104DA00004460F4690469946DDE90CAB0E9EFFF790
:104DB0008DFD054694F83D0020287DD11923012260
:104DC0004D492046009503F0BFF910B10220BDE81F
:104DD000FC9F00BF94F83C00012801D10220F6E7B7
:104DE000012084F83C0000BF2068006800F001004A
:104DF00028B92068006840F0010021680860206838
:104E0000006820F4006021680860212084F83D00DB
:104E1000402084F83E0000202064C4F824A0A4F8B8
:104E20002AB0608D20853548E0624B4642463946BF
:104E30002046CDE9006503F0EBF808B10120C6E794
:104E400031E02A463146204603F063FA50B1206C27
:104E5000042805D12068006840F4007021680860CB
:104E60000120B4E7606A007821680861606A401C2C
:104E70006062208D401E2085608D401E6085206808
:104E80004069C0F3800070B1208D60B1606A007825
:104E900021680861606A401C6062208D401E208588
:104EA000608D401E6085208D0028CAD12A4631467B
:104EB000204603F01BF900E01CE050B1206C0428F0
:104EC00005D12068006840F4007021680860012066
:104ED0007DE72068006840F40070216808602020A9
:104EE00084F83D00002084F83E0000BF84F83C00B8
:104EF00000BF6CE702206AE7020010000000FFFF1D
:104F000010B586B00446142101A8FBF714FD1B4917
:104F1000206888422FD100BF002000901848006808
:104F200040F00200164908600846006800F00200E0
:104F3000009000BF00BFC02001901220029001200D
:104F40000390032004900420059001A90D48FFF769
:104F5000B7FB00BF0020009009481030006840F403
:104F600000100749103108600846006800F400107E
:104F7000009000BF00BF06B010BD0000005400400C
:104F8000303802400004024070B504460CB90120DC
:104F900070BD4CF6CC402168086045F25550216840
:104FA0000860D4E9001048602168A0688860FFF7B5
:104FB0008DFC054606E0FFF789FC401B302801D92F
:104FC0000320E5E72068C0680028F4D14AF6AA204B
:104FD000216808600020DBE701464AF6AA200A683B
:104FE00010600020704700000348006803490978FA
:104FF0000844014908607047CC000020D40000201C
:1050000010B50D48006840F400700B490860084670
:10501000006840F4806008600846006840F48070D2
:105020000860032000F0C2F80F2000F007F800F03D
:105030004BF8002010BD0000003C024070B588B065
:1050400004460025002600222146192000F070F8B1
:10505000192000F05DF800BF00200190164800689C
:1050600040F00100144908600846006800F00100A3
:10507000019000BF00BF02A903A800F0B7FB00F039
:10508000EDFB05460D48B5FBF0F0461E0C480D49FA
:10509000086040F2E7310B48C160466000210161C1
:1050A000816002F091F920B9064802F0E9F908B0F0
:1050B00070BD0120FBE700004438024040420F0071
:1050C00000000140AC26022008B500BF002000907F
:1050D0000E48006840F480400C49086008460068AB
:1050E00000F48040009000BF00BF00BF002000908F
:1050F000081F006840F08050091F086008460068DB
:1051000000F08050009000BF00BF08BD443802404E
:1051100001460846002809DB00F01F0301229A40DF
:1051200043099B0003F1E023C3F8002100BF70474F
:105130002DE9F05F80460D461646002708F006FB75
:10514000074639462A46334601F00700C0F1070AF0
:10515000BAF1040F02D94FF0040A01E0C0F1070AC6
:10516000D14600F1040ABAF1070F02D24FF0000A4B
:1051700001E0A0F1030AD4464FF0010A0AFA09FA45
:10518000AAF1010A0AEA020A0AFA0CFA4FF0010B24
:105190000BFA0CFBABF1010B0BEA030B4AEA0B0415
:1051A0002146404608F0DAFABDE8F09F00BF00F063
:1051B0000702064B19684FF6FF031940044B0B43D7
:1051C00043EA0221014B196000BF70470CED00E07B
:1051D0000000FA05024949688143014A516070475D
:1051E00000700040024949680143014A516070471C
:1051F000007000400748006840F002000549086060
:105200000548006840F004000349086000BF00BF83
:1052100030BF70470070004010ED00E02DE9F8430A
:105220000446002500260027A846207800F001004B
:1052300058B1FE48006820F0C060E1690843FB49AE
:105240000860E06908B94FF00108207800F002001A
:1052500002280BD1F548006820F0C050216A0843AD
:10526000F2490860206A08B94FF00108208800F46C
:105270000050B0F5005F19D1EC48006820F44010F0
:10528000A16C0843E9490860A06C08B94FF0010817
:10529000A06CB0F5001F09D1E448006820F4F85173
:1052A0006069401E41EA0020E0490860208800F45F
:1052B0008040B0F5804F19D1DC48006820F44000F0
:1052C000E16C0843D9490860E06C08B94FF0010867
:1052D000E06CB0F5000F09D1D448006820F4F85113
:1052E0006069401E41EA0020D0490860207800F043
:1052F000080008287ED100BF00200090CB484C3821
:10530000006840F08050C9494C3908600846006880
:1053100000F08050009000BF00BFC548006840F416
:105320008070C3490860FFF7D1FA054607E0FFF730
:10533000CDFA401B022802D90320BDE8F883BC48FF
:10534000006800F480700028F1D0B8481C3800686C
:1053500000F440764EB3A08C00F44070B04224D0EC
:10536000B2481C38006820F440760120B14908603A
:1053700000200860AD481C380660006800F001009D
:1053800098B1FFF7A3FA054608E0FFF79FFA401B24
:1053900041F28831884201D90320CEE7A3481C3866
:1053A0000068C0F340000028EFD000BFA08C00F4DC
:1053B0004070B0F5407F0CD19C488438006820F4E0
:1053C000F8109D4A616A1140084398498439086081
:1053D00007E096488438006820F4F810934984392F
:1053E000086092481C380068A18CC1F30B01084387
:1053F0008E4900E002E01C39086000BF207800F010
:105400000400042803D194F854008C4908602078E3
:1054100000F01000102809D184480830006820F4FA
:105420004000E16A0843814908310860207800F0B3
:10543000200020280FD17D480830006820F000604F
:10544000216B0843794908310860206BB0F1006F87
:1054500001D14FF00108207800F04000402809D128
:1054600072480830006820F08050A16A08436F49F4
:1054700008310860B8F1010F02D0206880287DD182
:1054800000206F498866FFF721FA054606E0FFF71E
:105490001DFA401B022801D903204EE763488C38CF
:1054A0000068C0F3C0600028F1D16649206D086033
:1054B000207800F0010008B1E069D0B1207800F058
:1054C0000200022801D1206A98B1207800F0200063
:1054D000202803D1206BB0F1006F0AD0207800F0B3
:1054E0004000402812D1A06A80B9206BB0F1006F53
:1054F0000CD1D4E9011041EA8011207B41EA00611E
:10550000207C41EA0070494908390860208800F48D
:105510000050B0F5005F01D1A06C38B1208800F4D4
:105520008040B0F5804F1BD1E06CC8B93F480838C7
:105530000068C0F30367D4E9011041EA801040EA33
:105540000761207C41EA0070384908390860374813
:10555000006820F01F00A169491E08433349086014
:10556000207800F0800080280ED1D4E9011041EAB3
:105570008011207B41EA0061207C00E019E041EAD3
:1055800000702A490839086001202D498866FFF714
:105590009DF9054606E0FFF799F9401B022801D95D
:1055A0000320CAE621488C380068C0F3C060002898
:1055B000F1D0208800F48070B0F5807F07D11B48BF
:1055C000006820F00040616B08431849086020889B
:1055D00000F40070B0F5007F07D11448006820F493
:1055E0000040A16B084311490860208800F48060E6
:1055F000B0F5806F07D10D48006820F00040E16BE6
:1056000008430A490860208800F40060B0F5006F84
:1056100007D10648006820F48040216C0843034904
:105620000860208800F480500EE000008C380240B2
:1056300000700040400E4742FFFCFF0FE011474260
:1056400000004742D8104742B0F5805F07D10548B7
:10565000006820F04040616C084302490860002067
:105660006BE600009438024070B504460D460CB954
:10567000012070BD5848006800F00F00A84209D210
:1056800055490D700846006800F00F00A84201D08F
:105690000120EEE7207800F0020002281DD12078DA
:1056A00000F00400042805D14C48006840F4E050A4
:1056B0004A490860207800F00800082805D14748CA
:1056C000006840F46040454908604448006820F0A4
:1056D000F000A168084341490860207800F001000B
:1056E000A8B36068012807D13C4808380068C0F3B7
:1056F0004040B8B90120BCE76068022802D0606869
:10570000032807D1354808380068C0F3406048B91D
:105710000120AEE7314808380068C0F3400008B9FE
:105720000120A6E72D48006820F0030061680843C7
:105730002A490860FFF7CAF8064609E0FFF7C6F8ED
:10574000801B41F28831884202D9032091E707E0AB
:105750002248006800F00C006168B0EB810FEDD1C9
:105760001D48006800F00F00A84209D91A490D70C1
:105770000846006800F00F00A84201D0012078E739
:10578000207800F00400042807D11448006820F4B1
:10579000E050E168084311490860207800F00800F3
:1057A000082808D10D48006820F46040216940EACB
:1057B000C1000A49086000F061F808490968C1F3AE
:1057C0000311074A515CC840064908600648006852
:1057D000FFF734FC00204CE7003C02400838024050
:1057E00078430208D8000020D00000200F22026079
:1057F0000D4A126802F0030242600B4A126802F07E
:10580000F0028260084A126802F4E052C260064A5E
:10581000126802F46042D2080261044A126802F07F
:105820000F020A607047000008380240003C024046
:105830000148006870470000D800002000B5FFF75D
:10584000F7FF04490968C1F38221034A515CC8404B
:1058500000BD0000083802408843020800B5FFF789
:10586000E7FF04490968C1F34231034A515CC8406B
:1058700000BD000008380240884302082DE9F047C7
:10588000002400250026A1462548006800F00C00F1
:1058900020B1042805D008283AD105E0DFF884902B
:1058A00039E0DFF8849036E01D48001F006800F002
:1058B0003F041B48001F006800F4800078B11A48BC
:1058C0001749091F0968C1F38811A0FB017001463F
:1058D000224600233846FAF75FFD05460EE01148E0
:1058E0000F49091F0968C1F38811A0FB0170014627
:1058F000224600233846FAF74FFD05460848001FA8
:105900000068C0F30140401C4600B5FBF6F902E018
:10591000DFF8109000BF00BF4846BDE8F0870000E8
:10592000083802400024F40040787D01F8B50446B0
:105930000025207800F00100002874D0F7480068A6
:1059400000F00C0004280DD0F448006800F00C00B2
:10595000082813D1F148001F006800F48000B0F55A
:10596000800F0BD1ED4808380068C0F34040002894
:1059700059D06068002856D10120F8BD00BF60688A
:10598000B0F5803F08D1E5480838006840F4803021
:10599000E249083908601EE06068B0F5A02F0DD11B
:1059A000DE480838006840F48020DC490839086087
:1059B0000846006840F4803008600CE0D74808389A
:1059C000006820F48030D54908390860084600682E
:1059D00020F48020086000BF606890B1FEF776FF79
:1059E000054606E0FEF772FF401B642801D903203C
:1059F000C3E7CA4808380068C0F340400028F1D027
:105A000011E0FEF763FF054606E0FEF75FFF401B6F
:105A1000642801D90320B0E7C04808380068C0F303
:105A200040400028F1D1207800F0020002285FD128
:105A3000BA48006800F00C0058B1B848006800F09F
:105A40000C0008281CD1B548001F006800F4800035
:105A5000B0B9B24808380068C0F3400020B1E0682F
:105A6000012801D0012088E7AC480838006820F000
:105A7000F800216940EAC100A8490839086037E008
:105A8000E06800B30120A6490860FEF71FFF054645
:105A900006E0FEF71BFF401B022801D903206CE73C
:105AA0009E4808380068C0F340000028F1D09B48A9
:105AB0000838006820F0F800216940EAC1009749E1
:105AC0000839086014E0002095490860FEF7FEFEE2
:105AD000054606E0FEF7FAFE401B022801D9032026
