:020000040800F2
:1000000038C50220AD020008E5970008CB80000843
:10001000E1970008713A00085DC200080000000086
:10002000000000000000000000000000D5B1000842
:10003000653D0008000000002D9800087DB800080C
:10004000C7020008C7020008C7020008C70200086C
:10005000C7020008C7020008C7020008C70200085C
:10006000C7020008C70200087D3F0008C702000859
:10007000753A0008C7020008853A0008953A00085A
:10008000C7020008C7020008C7020008C70200082C
:10009000C7020008C7020008C7020008873F00081F
:1000A000C702000849B90008C7020008C7020008D3
:1000B000C7020008C7020008C7020008C7020008FC
:1000C000C7020008C7020008C7020008C7020008EC
:1000D00089A80008C7020008C7020008C702000874
:1000E000C7020008C7020008C7020008C7020008CC
:1000F000C7020008C7020008C7020008C7020008BC
:10010000C702000879980008C7020008C702000863
:10011000C7020008C702000859B9000869B90008F9
:10012000A53A0008B53A0008C7020008C53A000819
:10013000D53A0008C7020008C7020008C702000835
:10014000C7020008C7020008C7020008C70200086B
:10015000E53A0008F53A0008C7020008C70200089F
:10016000C7020008C7020008C7020008C70200084B
:10017000C7020008C70200080000000000000000DD
:10018000C7020008C70200082DBC0008C70200080B
:1001900099A80008A9A8000800000000C7020008EC
:1001A000C7020008C70200080000000000000000AD
:1001B000C70200080000000000000000C70200089D
:1001C000C7020008C7020008C7020008C7020008EB
:1001D000C7020008C702000800F002F800F057F854
:1001E0000AA090E8000C82448344AAF10107DA4592
:1001F00001D100F04CF8AFF2090EBAE80F0013F08D
:10020000010F18BFFB1A43F00103184748180500F7
:1002100068180500103A24BF78C878C1FAD8520788
:1002200024BF30C830C144BF04680C607047000070
:100230000023002400250026103A28BF78C1FBD8EF
:10024000520728BF30C148BF0B607047662915F0C0
:100250000881642900F09C81732900F01C8700202C
:1002600070471FB515F0F3F89DE8030000F03AFC65
:1002700000F04EFF04000020002114F0FBF9E060C4
:1002800001F064F81FBD10B501F0C9F810BD01F010
:100290001FF91146FFF7E5FF12F0E8FA01F0FCF94B
:1002A00003B4FFF7F0FF03BC01F034FA09488047BC
:1002B00009480047FEE7FEE7FEE7FEE7FEE7FEE748
:1002C000FEE7FEE7FEE7FEE704480549054A064B60
:1002D0007047000035B90008D901000838C5002072
:1002E00038C5022038C5012038C5012070B5A0FBF3
:1002F0000140B4F1805170F1000024BF002070BDB6
:10030000204600F007F805001CBF214600F041FB25
:10031000284670BD70B5064600F0C8FB056806F1BA
:100320000B0020F00704B4429CBF002070BD2B4698
:100330006A68BAB11068A04210D304F1080188427B
:100340003CBF5068586007D351681019416011686C
:10035000091B016058601460101D70BD134652687F
:10036000002AE7D12146284600F0A8FB0028DED16C
:1003700070BD70B50446051F00F098FB0068002CA6
:1003800014BF446870BD002C18BFAC423CBF20466F
:100390006468F8D301680A18AA4218BF456003D1FF
:1003A0002A6805461144016028684119A1421CBF12
:1003B0006C6070BD6168696021680844286070BD28
:1003C00053EA020C00F069802DE9F04B4FF0000673
:1003D000002B1FBFB3FA83F503FA05F424FA05F6E0
:1003E0005E4012BF1643B2FA82F502FA05F4C5F177
:1003F00020051EBF22FA05FC44EA0C04203556EA0B
:10040000044C4FEA144418BF641C4FF000084FF02E
:100410000009904271EB030C39D3002919BFB1FADE
:1004200081F701FA07F6B0FA80F700FA07F6C7F18C
:1004300020071EBF20FA07FC46EA0C062037B6FB51
:10044000F4FCA7EB0507103F07F01F0BCBF12006CC
:100450000CFA0BFB2CFA06F644BFB3460026202FFD
:10046000A4BF5E464FF0000B5BEA060C08BF4FF0DE
:10047000010B19EB0B09ABFB027C48EB0608C01B18
:1004800006FB02CC0BFB03CC71EB0C01C1E70B4666
:10049000024641464846BDE8F08B13B54FF00000D8
:1004A0004FF00001AFF30080BDE81C407047000032
:1004B0000FB4044910B503AA029800F0F1FD10BC76
:1004C0005DF814FB2CC400200FB41CB5074B06AA22
:1004D0007B4469460090059800F0B3FD0020694612
:1004E00000F0C2FD1CBC5DF814FB0000950B000081
:1004F00070B5044685690068C10601D5302600E064
:100500002026C00707D070BDD4E9012130469047AE
:10051000206A401C20626D1EF6D570BD70B5044681
:1005200085690078C00707D170BDD4E9012120207A
:100530009047206A401C20626D1EF6D570BD70B5D4
:100540000C460546012A05D02878800600D5EA69C0
:10055000002302E0012305E05B1C934202D2E05C31
:100560000028F9D1A869E618C01AA861286A1844B9
:1005700028622846FFF7BCFF04E0D5E9012114F802
:10058000010B9047B442F8D32846FFF7C7FF70BD70
:100590002DE9F0410646002410687529314616A55C
:1005A00010D0AFF30080002802DA404213A507E024
:1005B00031688A0701D512A502E0490704D511A5C3
:1005C000012401E0AFF3008000210A2206F1240794
:1005D00009E0B0FBF2FCB0FBF2F302FB1C00303090
:1005E00078541846491C0028F3D123462A46304641
:1005F000BDE8F04100F0B7BA000000002D00000097
:100600002B000000200000002DE9F05F8946044621
:100610004FF0000ADFF824B1FB44C0F820A02046C8
:10062000E168884700287DD0252806D0D4E901213B
:100630009047206A401C2062F1E700255F46204673
:10064000E16888472028064607DB312E05D2B81915
:1006500010F8200C08B10543F1E7A80701D525F0F3
:100660000405C4F81CA00027C4F818A02A2E09D03D
:1006700030460CF0E7FE38B304EB8708303EC8F88C
:10068000186019E059F8041B204604EB87029161B9
:10069000E1688847012F064618D1E069002820DA72
:1006A00025F020051DE0D8F8180000EB800006EBCF
:1006B00040003038C8F818002046E16888470646F0
:1006C0000CF0C0FE0028EED1012F0AD02E2E08D14A
:1006D0002046E16888477F1C0646022F45F020052A
:1006E000C4DBA069002803DA404245F00105A0619F
:1006F000E80701D025F01005A6B1A6F141001928A0
:1007000002D8203645F400654A4631462046256029
:100710004D46FFF79BFD60B1012807D0ED1D25F088
:10072000070000E007E000F1080978E705F1040997
:1007300075E730467AE7206ABDE8F09FBF120500F2
:10074000014A00F0BFBC0000EC000020401ECAB20D
:1007500010F8011F8A4202D00029F9D10020704709
:1007600040EA0103024630B59B0710D14FF0013437
:1007700000E008C208C91D1B9D4315EAC41FF8D03C
:1007800013F0FF0102F8011B0DD01B0AF8E711F866
:10079000013B002B02F8013B05D011F8013B002B77
:1007A00002F8013BF3D130BD10B5431C02E010F854
:1007B000011B71B18107FAD14FF0013202C88C1AC6
:1007C0008C4314EAC211F9D0C01A0A0603D0C01E25
:1007D00010BDC01A10BD0A0401D0801E10BD090250
:1007E000FCD0401E10BD40EA010370B59B072ED11E
:1007F0004FF00136042A2AD308C810C99D1B9D4317
:10080000121F15EAC61517D0D8B2E1B2401A50EA45
:10081000056110D198B2A1B2401A50EA05410AD13F
:1008200023F07F4024F07F41401A50EA052102D195
:10083000180EA0EB146070BDA342DBD018BA21BA29
:10084000884201D9012070BD4FF0FF3070BD0AB958
:10085000002070BD10F8013B11F8014B63B1A342B9
:100860000AD1521E08D010F8013B11F8014B1BB100
:10087000A34201D1521EEDD1181B70BD421E12F8C9
:10088000013F002BFBD111F8013B002B02F8013B8B
:10089000F9D17047032A40F2308010F0030C00F0C9
:1008A000158011F8013BBCF1020F624498BF11F8AA
:1008B00001CB00F8013B38BF11F8013BA2F1040263
:1008C00098BF00F801CB38BF00F8013B11F00303DB
:1008D00000F02580083AC0F0088051F8043B083A3F
:1008E00051F804CBA0E80810F5E7121D5CBF51F8E1
:1008F000043B40F8043BAFF30080D20724BF11F85B
:10090000013B11F801CB48BF11F8012B24BF00F8BF
:10091000013B00F801CB48BF00F8012B704710B530
:10092000203AC0F00B80B1E81850203AA0E81850E7
:10093000B1E81850A0E81850BFF4F5AF5FEA027CA8
:1009400024BFB1E81850A0E8185044BF18C918C017
:10095000BDE810405FEA827C24BF51F8043B40F8B8
:10096000043B08BF7047D20728BF31F8023B48BF9D
:1009700011F8012B28BF20F8023B48BF00F8012BDB
:10098000704702F0FF0343EA032242EA024200F00A
:1009900002B84FF000020429C0F0128010F0030CDE
:1009A00000F01B80CCF1040CBCF1020F18BF00F862
:1009B000012BA8BF20F8022BA1EB0C0100F00DB811
:1009C0005FEAC17C24BF00F8012B00F8012B48BF6F
:1009D00000F8012B70474FF0000200B51346944613
:1009E0009646203922BFA0E80C50A0E80C50B1F187
:1009F0002001BFF4F7AF090728BFA0E80C5048BF9B
:100A00000CC05DF804EB890028BF40F8042B08BF38
:100A1000704748BF20F8022B11F0804F18BF00F834
:100A2000012B70474FF0013C50F8042B51F8043B68
:100A30009A4221D1A2EB0C03934313EACC1317D1B2
:100A400050F8042B51F8043B9A4215D1A2EB0C0349
:100A5000934313EACC130BD150F8042B51F8043B09
:100A60009A4209D1A2EB0C03934313EACC13DBD0D7
:100A70004FF00000704700BFD01A01BAB1FA81F1FF
:100A800001F0180122FA01F0CB40C1F12001DBB2E4
:100A9000C0B2C01A2CFA01F3D11A914311EAC31162
:100AA000E6D17047704770477047000000487047B4
:100AB000DCC40020704770477047704738B5044663
:100AC0000A4600206946AFF30080002808BF38BD01
:100AD00002460099204600F023FB012038BD01208A
:100AE00000F0D0BCF8B5AFF30080054600200C46FE
:100AF000102000BF0646A819A0420DD9324669460B
:100B00000020AFF30080070008BF00F0BBFC009896
:100B1000A04218BF0546C419FFF7C8FF0560074685
:100B2000F01D20F007004619284600F00AF8B442EC
:100B300008BFF8BDA21B31463868BDE8F84000F098
:100B4000EFBA00210160C0E9011070471020704722
:100B500010B500F0E1FA006810BD10B5044600F0D1
:100B6000DBFA046010BD2DE9F0470D469946924628
:100B7000044600F124080168880604D5E06921F0E4
:100B80001001216000E00120A84201DD471B00E0C8
:100B90000027A1697A1902EB0900081AA0612078E0
:100BA000C00602D42046FFF7A3FC002608E0D4E9E3
:100BB00001211AF806009047206A401C761C20622A
:100BC0004E45F4DB2078C0060AD52046FFF790FC9E
:100BD00006E0D4E9012130209047206A401C2062C1
:100BE000381EA7F10107F4DC07E0D4E9012118F869
:100BF00005009047206A401C2062281EA5F10105CF
:100C0000F3DC2046FFF78AFC2078000602D502209C
:100C1000BDE8F0870120FBE770472DE9FF4F0C4648
:100C20001E464FF0FF378BB0D2E90001DDF860803F
:100C30000A908A46C1F30A5505B93D460021084687
:100C40004FF00000BAF1000F00F4400005DA00EBAD
:100C500080004FF4400101EA50004FEA9059B9F189
:100C6000010F00DDB9460A9850EA4A000ED044F65A
:100C70001050A5F2FF3545432F14B8F1000F1ED0D8
:100C80007542291E1EDDC9F100021CE0B8F1010FFA
:100C90004FF0000001D0302103E0F24305E0215481
:100CA000401CB042FBDB30460022002121540B994E
:100CB000C1F80880C1E900200FB0BDE8F08FBD1B6E
:100CC0006D1CDEE74A4600DA694206A800F0C8FA61
:100CD00006AB93E8070003AB83E8070050460A9988
:100CE00000F06EFE8DE80700A0F500501F38009060
:100CF0000398002D0ADD42F21F014A4608440023F2
:100D000003A90390684601F0D7F809E0A0F5005068
:100D10004A461F38002303A90390684601F0E1F812
:100D20008DE807000004000C03D04FF0FF304108AD
:100D300000E01046B8F1000F03D0002200921546E3
:100D40001EE0751E05D400F005FA303262556D1EA6
:100D5000F9D5B3460122084302D000227F1C04E0EB
:100D60002078302801D100227F1E002A099784D0E4
:100D70001DE0112D07DA00F0EDF9303262556D1CDF
:100D800050EA0102F5D1084302D00098C8B10EE044
:100D90000021681E05E0235C625C63542254401EFF
:100DA000491C8142F7DBAB46A81B401E099000207E
:100DB00004F80B000B98099AC0F80880C0E9002BD2
:100DC0007AE711264FF0000857E72DE9F04F8846E3
:100DD0000446D21D22F0070191B0D1E90001CDE90E
:100DE0000A010BF03DFA02460B98C00F01D02D20EE
:100DF00007E02068810701D52B2002E0202101EACD
:100E0000C000032A099001D0072A05DB03464146AA
:100E1000204600F0E5F90BE12078800601D5E06975
:100E200000E00620B8F1650F814606D0B8F1660FE4
:100E300018D0B8F1670F70D131E00020B9F1110F6F
:100E4000009001DB112301E009F101030AAA01A9C5
:100E50000CA8FFF7E2FEDDE90C70002609F10105A0
:100E6000834647E001204B4600904FF000470AAA16
:100E700001A90CA8FFF7D1FEDDE90DB00C995D4684
:100E8000002610B909F101000D18B9EB050003D4D3
:100E9000C0F1FF3609F10105A5EB09002BE0B9F11E
:100EA000010F01DA4FF001090020B9F1110F009094
:100EB000484601DD112300E003460AAA01A90CA857
:100EC000FFF7ABFEDDE90C704D4600268346207827
:100ED00000070AD4AB4500DA5D4601A8012D04DD08
:100EE000411911F8011C302907D04F4502DA17F1DA
:100EF000040F04DA012082460FE06D1EEEE7002F9A
:100F000002DCED1B3E4403E0781CA84200DD7D1CA2
:100F1000B81B00F1010A4FF000472078000703D406
:100F2000AA4501DB4FF0FF3A0021B7F1004F0DF168
:100F300043088DF8431024D002202B23002F01DA20
:100F40007F422D230A21021EA0F1010000DC5FB1C7
:100F500097FBF1FC97FBF1F201FB1C7C17460CF1AF
:100F6000300C08F801CDEEE7A8F1010003702188EC
:100F7000090501D5452100E06521A0F1010800F82F
:100F8000011C09980FA9A1EB0807FF1D00B1012062
:100F9000411901EBEA70A1693844081A401EA061AA
:100FA0002078C00602D42046FFF7A2FA099828B19B
:100FB000D4E901219047206A401C20622078C006B5
:100FC00022D52046FFF794FA1EE0002E04DBB3453D
:100FD00002DD01A8805D00E03020D4E901219047C6
:100FE000206A401C2062761CAAF101005FEA000A18
:100FF0000AD100F08DF8C0680168405CD4E9012195
:101000009047206A401C2062281EA5F10105DCDC07
:1010100007E0D4E9012118F8010B9047206A401C31
:101020002062381EA7F10107F3DC2046FFF776FAAD
:10103000032011B041E6000001694A1C02610878F2
:10104000704700B58FB0CDE9013100210591054908
:101050007944CDE9031011466846FFF7D5FA0FB081
:1010600000BD0000E5FFFFFF0A6802F8010B0A60FF
:10107000704710B5436913B1AFF3008001E0FFF78B
:101080005EFA012010BD127800F124010A700022DE
:101090004A700122EDE711684FF0FF32E9E70000E6
:1010A000074B70B50D467B44FFF7CBFF044628463F
:1010B00000F048F910B14FF0FF3070BD204670BD10
:1010C0008B1201002DE9F04115460E46040002D1B5
:1010D0002C6804B90BA4204600F0EBF904442078F6
:1010E00070B127463146384600F0D3F904442078E1
:1010F00010B1002004F8010B38462C60BDE8F081E7
:101100000027F9E70000000000487047D4C4002021
:1011100000487047F4C4002000487047D4C4002041
:10112000034640688C46002818BF88423CBF0346EF
:101130004068F8D318681844884207D00CF10300BF
:1011400020F00700001D411A521A0146081D0A60CE
:10115000FFF70FB930B5B0F10A024FEA900E71F106
:1011600000034EEA817EB0EB0E0061EB91014FEA85
:10117000101E4EEA017E10EB0E0041EB11114FEAFA
:10118000102E4EEA016E10EB0E0041EB11214FEADA
:10119000104E4EEA014E10EB0E0041EB114140188B
:1011A00041F100014FEAD00040EA41704FEAD1011D
:1011B00010EB80054FEA810444EA907444EB01048B
:1011C0006D1944EB0404521BA3414FF0000348BFC8
:1011D0000A3200D530BD401C41F1000130BD000095
:1011E0002DE9F0411F46044603260168072A01F451
:1011F000006004DB08B116A505E016A503E008B100
:1012000015A500E015A521F010002060A069C01E02
:10121000A0610FB1401EA0612046FFF769F94FB1F0
:10122000D4E9012138469047206A401C2062C01C46
:10123000206206E0206AFAE7D4E9012115F8010BE3
:101240009047761EF8D22046FFF768F9BDE8F08196
:101250004E414E006E616E00494E4600696E66005A
:101260002DE9F047814616468AB0354878440DC8C6
:101270008DE80D0032487844801C03AC0DC884E82A
:101280000D0041F69B300844372190FBF1F290FBB2
:10129000F1F5A5F1800501FB12041B3C02D5644267
:1012A000012000E00020DFF898A080460027FA44E3
:1012B000AAF1BE0A0EE0E0070AD03246684607EB04
:1012C000470101230AEB810100F00BFE8DE80700C6
:1012D00064107F1C002CEED1194F7F44AE3F19E003
:1012E000E80715D007EB04100DF1180A90E80E007E
:1012F0008AE80E00C068F04201D198190890324681
:10130000012306A903A800F0ECFD03AB83E8070066
:101310006D10641C002DE3D14FF001033246694685
:10132000B8F1000F03A802D000F0C6FD01E000F004
:10133000D8FDC9E90001C9F808200AB0BDE8F08766
:10134000CC070500007B00F08000704710B54248D4
:101350005421FFF740FB41485421FFF73CFB404834
:101360005421FFF738FB3F493B483C4A3F4B08605C
:101370003D490A603A491960531C0365481C1065D1
:10138000012008653B48344A39A1784400F0E8F868
:1013900020B9384878440A3800F08CF937482F4A89
:1013A00035A1784400F0DCF820B9344878440A3894
:1013B00000F080F932482A4A2FA1784400F0D0F892
:1013C00020B92F4878440A3800F074F940232248A5
:1013D000DC000021224600F0A0F820B12548784426
:1013E000543800F067F91D4822464023002100F0E0
:1013F00094F820B121487844543800F05BF918483B
:1014000022461023002100F088F8002806D01C484E
:101410007844BDE81040563800F04CB910BD104873
:1014200070B5006D20F001040B4800F00FF90B4877
:1014300000F00CF90A4800F009F909E0206D20F0ED
:101440000105204600F002F92046FEF792FF2C46E7
:10145000002CF3D170BD0000D8C300202CC40020A4
:1014600080C40020F0000020F4000020F8000020DC
:101470007200000036050500770000002505050014
:101480001505050010B500F01DF9BDE8104000F08D
:101490000CB930B503461D781DB10A4603E0AC42D5
:1014A00001D1181A30BD12F8014B002CF7D15B1C8A
:1014B000F1E730B503461D783DB10A4612F8014BFD
:1014C0001CB1AC42FAD15B1CF5E7181A30BD70476D
:1014D0007546FFF719FEAE4605006946534620F0F3
:1014E0000700854618B020B5FEF7EEFEBDE82040A7
:1014F0004FF000064FF000074FF000084FF0000BD0
:1015000021F00701AC46ACE8C009ACE8C009ACE882
:10151000C009ACE8C0098D46704770B5C468A5071E
:1015200013D0650211D4B2F5807F09D0B2F5007FE7
:1015300006D0B2F5806F08D1012300F1240106E046
:101540005D1E6FF07F46B54201D3012070BD016181
:10155000C361416024F470611143C160002070BD1B
:101560002DE9F0410C4607461646104600F06EF88D
:101570002078611C61280AD0722802D077283CD1DB
:1015800002E00125002405E00225042402E00824ED
:1015900048F2020511F8010B2B2806D0622809D069
:1015A00011F8010C74280AD00BE045F0030544F053
:1015B0000204EFE745F0040544F00104EAE744F0D3
:1015C0001004384621460BF07BFF411C15D000214A
:1015D000316171604FF40071F560F1617061200755
:1015E00004D530460222002100F09AF8306D40F018
:1015F000010030653046BDE8F0810020FBE72DE9B1
:10160000F0410D460646104C206DC10704D041083C
:1016100004D020F00104F7E722460EE05420FEF744
:1016200079FE07000ED0206D47F0010108435421D8
:1016300020653846FFF7CFF93A4629463046BDE8DF
:10164000F0418DE70020D6E7D8C300202DE9F04710
:1016500004464FF000094FF0FF37C568D4E904860F
:10166000A80707D0204600F00BF930460BF0F1FE3A
:10167000002802DA3846BDE8F087280502D5404642
:10168000FEF777FE4C212046FFF7A5F9206D20F0EC
:10169000010020654846EEE710B50446AFF3008030
:1016A0002046BDE81040FEF7FBBD002801D000F049
:1016B00031B8704710B500F041F9BDE81040FFF7B0
:1016C000F4BF000010B5012805D0002103A000F0F0
:1016D0001BF9012010BD09A1F8E70000534947524A
:1016E000544D454D3A204F7574206F6620686561F2
:1016F00070206D656D6F7279000000003A204865BA
:101700006170206D656D6F727920636F7272757094
:101710007465640001491820ABBEFEE72600020094
:101720002DE9F041044616460D464769007B8007C7
:101730002ED038460BF0B2FE50BB3EB3012E02D085
:10174000022E25D104E0204600F019F905441DE0E1
:1017500038460BF091FEE168002841F01001E1608D
:1017600005DA204600F058F80120BDE8F081C903F1
:101770000BD56268E16A914200D81146A269114412
:101780002269891A814200DD08460544002D01DAEC
:101790000220EAE7E16A6068E268814206D29103CA
:1017A000E06203D522F4003141F01002A66900275F
:1017B000AE4213DCE16A814201D90B4600E00346E8
:1017C00003EB060C2369ACEB030CAC4506DD814250
:1017D00001D98C4600E084469C4505D1A76027606E
:1017E00042F02000A5620DE0AD1BE669AE1B814210
:1017F000A66000D90846C01A281A206058196060EF
:1018000022F0200003490840E060002084F848707E
:10181000ABE70000BFCFD7FFC16821F4001141F052
:101820008001C16000218160016070472DE9F047AF
:10183000814614460E464FF0FF383248D568576946
:10184000054209D03846A1690BF06EFE002811DB75
:101850002C48C0430540E5602B4632464946384691
:101860000BF078FEA16920F00042B21A1144002862
:10187000A16103D02046FFF7CFFF4046BDE8F087C7
:1018800070B504460569C06A6168884200D8084698
:10189000E16821F42011E160C90312D5A84208D003
:1018A0002246411B2846FFF7C1FF10B14FF0FF3021
:1018B00070BD0020E562C4E90150E06820F480308A
:1018C000E060002070BD10B50446C06820F0200024
:1018D000E060A16AA06988420DD02046FFF7D0FFE2
:1018E000E06820F4405040F01000E060A06AA06181
:1018F0002069E062606044F24001E0688843E06093
:1019000010BD00001000020070B505460C460A200C
:1019100000E06D1C00F02CF835B128780028F8D1D3
:1019200002E0641C00F024F814B120780028F8D1FB
:10193000BDE870400A2000F01BB8000010B5014659
:1019400002A0FFF7E1FF012010BD000053494752FC
:10195000545245443A2052656469726563743A2072
:1019600063616E2774206F70656E3A20000000007E
:1019700008B569468DF800000320ABBE08BD10B560
:101980000146C268900703D0900607D5886A0AE02E
:10199000FFF7C2FB01210160881E10BD8B694868FA
:1019A00018440B69C01A91F848301BB191F84910DE
:1019B000401A10BD1103FCD50028FADD401E10BDF1
:1019C0005FEA400C08BF91F0000F4FEA8C234FEA0A
:1019D000C12243EA51514FEA1C5018BF00F5F040B4
:1019E0004FEA300018BF41F000415FEA6C5C00F044
:1019F0002980BCF1FF3F08BF40F080407047130CC6
:101A000006BF12044FF0100C4FF0000C130E04BF71
:101A100012020CF1080C130F04BF12010CF1040C9C
:101A2000930F04BF92000CF1020CD30F04BF5200BD
:101A30000CF1010C11464FF00002A0F11F00A0EBC9
:101A40000C00704711F0004F08BF704731F00041A3
:101A50003FF4D5AF0B0C06BF09044FF0100C4FF04C
:101A6000000C0B0E04BF09020CF1080C0B0F04BF95
:101A700009010CF1040C8B0F04BF89000CF1020C5E
:101A8000CB0F04BF49000CF1010CCCF12003A0EBFB
:101A90000C0022FA03F302FA0CF241EA030100F10E
:101AA0000100704720F07F4C80EA030023F07F475D
:101AB000ACEB070303F57C5300F0004003F1FF0398
:101AC0002DE980494FEA154B09B44FEA144325EA42
:101AD0000B4E24EA03480FF2042606EB13274908AD
:101AE0003E785FEA320203FB0667C7F5000707FB93
:101AF00006F64FEA54374FEAD64606F1020607FBD0
:101B0000066CCCF1005C4FEA1C472CEA074C07FB43
:101B100006F40CFB06F504EB15464FEA961634BFA7
:101B200000204FF000404FEAD13706FB07FC4FEA98
:101B30001C4C0CFB0BF7D21B03FB0CF761EB0701F2
:101B40000CFB0EF7B0EB074072EB17420CFB08F7EB
:101B500034BFA2EB0742B2EB074261EB17414FEAF9
:101B60000C444FEA910706FB07FC4FEA1C4C0CFBA8
:101B70000BF7B0EBC74072EB573203FB0CF734BFE7
:101B8000A2EBC742B2EBC74261EB57310CFB0EF739
:101B9000B0EBC70072EB57720CFB08F734BFA2EB37
:101BA000C702B2EBC70261EB5771039F4FEA816135
:101BB00041EA921104EBCC044FEAD1374FEA82623A
:101BC00006FB07FC42EA90124FEA80604FEA1C4C89
:101BD0000CFB0BF7D21B03FB0CF761EB07010CFBB3
:101BE0000EF7B0EB074072EB17420CFB08F734BF5F
:101BF000A2EB0742B2EB074261EB17414FEA8C556B
:101C00004FEA910704EB9C2406FB07FC4FEA1C4CAF
:101C10000CFB0BF7B0EBC74072EB573203FB0CF732
:101C200034BFA2EBC742B2EBC74261EB57310CFBAA
:101C30000EF7B0EBC70072EB57720CFB08F734BF1E
:101C4000A2EBC702B2EBC70261EB577115EB4C2553
:101C50004FEA816141EA92114FEA82624FEAD1373D
:101C600042EA901206FB07FC44F100044FEA806050
:101C70004FEA1C4C0CFB0BF7D21B03FB0CF761EB80
:101C800007010CFB0EF7B0EB074072EB17420CFBA1
:101C900008F734BFA2EB0742B2EB074261EB1741F2
:101CA00015EB1C154FEA813141EA92414FEA82322D
:101CB00042EA90424FEA80304FEA0C7644F1000449
:101CC00048EA03434EEA0B484FF0000EB2EB080C13
:101CD00071EB030724BF624639464EEB0E0E4FF000
:101CE000000B0018524149414BEB0B0BB2EB080CB7
:101CF00071EB03077BF1000B24BF624639464EEBC4
:101D00000E0E4FF0000B0018524149414BEB0B0BEC
:101D1000B2EB080C71EB03077BF1000B24BF6246AA
:101D200039464EEB0E0E51EA020718BF46F0010687
:101D300016EB0E7655F1000254F1000103D5BDE813
:101D40008901BDE80088BDE88901BDE80048B619F1
:101D5000524141EB0101A3F10103704780807F7E76
:101D60007D7C7B7A79787776767574737271717011
:101D70006F6E6E6D6C6C6B6A6A69686867666665C3
:101D80006464636362616160605F5F5E5E5D5D5C51
:101D90005C5B5B5A5A5959585857575656555555C2
:101DA0005454535352525251515050504F4F4F4E22
:101DB0004E4D4D4D4C4C4C4B4B4B4A4A4A49494970
:101DC00048484847474747464646454545444444B2
:101DD000444343434342424242414141002B9C46DB
:101DE00030D477002BD01CB54FEA370703B44FF03F
:101DF00010004FF01001BAF1000F06D0BCF1000F37
:101E0000DCBF40F0080040F008014FF000000FBCBC
:101E1000BDE810400BF1010BBBF1010F08BF5FEAF9
:101E2000170722BF12F1010211F101014FF0004129
:101E300043F1000300F0004043EA00007047F9D38B
:101E40005708D0E746EA064613F1400F4FEA164618
:101E50001FDD13F1200FDFBF16430A460021203398
:101E60005B42BED0C3F1200746EA064602FA07F7F6
:101E70004FEA164646EA0706C3F1200722FA03F2A4
:101E800001FA07F721FA03F14FF0000342EA0702D3
:101E9000A7E746EA020646EA06464FEA164646EA3B
:101EA0000106BCBF46EA0646360C4FF000034FF071
:101EB00000024FF0000194E72DE9804C9A469346CA
:101EC00070B491E8380007C831EA400C48BF34EAE2
:101ED000430C03D5FFF7E6FDFFF780FFF0BCBDE83C
:101EE000008C2DE9804C9A46934670B491E83800F6
:101EF00007C810F0804F08BF13F0804F03D100F0E7
:101F000005F8FFF76BFFF0BCBDE8008C20F07F47C1
:101F100080EA030023F07F4C07EB0C03A3F57C530E
:101F200000F00040A3F1FE0392F0000F00F0B38038
:101F300095F0000F00F077802DE901494FEA11403C
:101F40004FEA144621EA004800FB06FC24EA064753
:101F500008FB06F607FB08F800FB07F718EB064836
:101F60004CEB164C4FEA124B18EB07484FEA15465C
:101F70004CEB174022EA0B4E0BFB06FC25EA06470A
:101F80000EFB06F607FB0EFE0BFB07F71EEB064EDD
:101F90004CEB164C4FF000061EEB074E4CEB174B6C
:101FA00018EB0B0840F1000018EB0E0B58EB000883
:101FB00040F100008F1A4FF000013CBFC943661B7F
:101FC00014BFB5EB040C00213CBFC943F61B4FEA1C
:101FD00017444EEA8E0E27EA04454FEA1C4704FBDD
:101FE00007622CEA074C05FB07F70CFB05F604FB20
:101FF0000CFC16EB074642EB174216EB0C4642EB85
:102000001C421BEB060658EB0202414146EA9E06C3
:1020100001D5BDE80189B619524141EB0101A3F197
:102020000103BDE801894FEA14454FEA114724EA4C
:10203000054621EA074C05FB07F406FB07F70CFBF6
:1020400006F105FB0CFC11EB074144EB17444FEA8A
:10205000124711EB0C4144EB1C4422EA074C05FBF0
:1020600007F206FB07F70CFB06F605FB0CFC16EB6C
:10207000074642EB174216EB0C4642EB1C456A182A
:1020800054F1000148BF7047B619524141EB0101BC
:10209000A3F10103704795F0000F37D04FEA1142CA
:1020A0004FEA144721EA024624EA074C02FB07F1F3
:1020B00006FB07F70CFB06F402FB0CFC14EB0744D1
:1020C00041EB17414FEA154714EB0C4441EB1C411F
:1020D00025EA074C02FB07F506FB07F70CFB06F6A3
:1020E00002FB0CFC16EB074645EB174516EB0C46BE
:1020F00045EB1C42121951F1000148BF7047B61957
:10210000524141EB0101A3F1010370474FEA14452D
:102110004FEA114724EA054621EA074C05FB07F17F
:1021200006FB07F70CFB06F24FF0000605FB0CFC64
:1021300012EB074241EB174112EB0C4251EB1C41F1
:1021400048BF7047921841EB0101A3F101037047AA
:102150002DE9F0472DED0E8BADF5F65DFE480078CC
:1021600000287DD0FD48007800287AD1FC4800780E
:102170000028FAD1FB480088002873D04FF00008EF
:1021800000247AE204EB4400F749085C00F00F00F9
:10219000012817D104EB440001440A88897842EAF7
:1021A000014040F31310F1490860601C00EB40004F
:1021B000ED4901440A88897842EA014040F313104E
:1021C000EA49486004EB4400E749085C00F00F006E
:1021D00002280AD104EB440001440A88897842EAC3
:1021E000014040F31310E149886004EB4400DE49EC
:1021F000085C00F00F00032817D104EB44000144F1
:102200000A88897842EA014040F31310D749C86030
:10221000601C00EB4000D44901440A88897842EAF6
:10222000014040F31310D149086104EB4400CE494A
:10223000085C00F00F0004280ED104EB44000144B8
:102240000A88897842EA014040F31310C74948617F
:1022500008F1010000F0FF08B8F1010F7ED102E0A3
:10226000FEE313E211E2C1480068C049C968411A9F
:102270000DF58050C0F8B41EBC484068BB490969E0
:10228000411A0DF58050C0F8B81EB8488068B749AB
:102290004969411A0DF58050C0F8BC1ED0F8B41E33
:1022A000D0F8B80E01440DF58050D0F8BC0E0844AB
:1022B00000EE100AB8EEC00AF0EE080A80EE201A0E
:1022C000B0EE41BAAA480068AA49098800EB81002B
:1022D00080ED00BAA7480088B0F5C87F09DBA548A3
:1022E0000088A0F5C870A249096801EB800080ED64
:1022F00000BAA0480088401C9E4908809E4800887B
:1023000014287DDD08460088B0F5C87F78DB4FF4DF
:10231000C86141F674006844FEF75DFB4FF4C86184
:1023200041F234206844FEF756FB012092490880B0
:10233000002020E08F490988A1F5C87101448C4A2A
:10234000126802EB810191ED000A8A490988A1F522
:10235000C871874A126802EB810100E08CE1D1ED7F
:10236000000A30EE600A41F23421694401EB800139
:1023700081ED000A401CB0F5C87FDBDB4FF4C87369
:1023800041F674026A44A2F5C8617C480BF0BEFFB6
:102390007B48016841F67400684400F0D7FE794933
:1023A000087079480068008870B9002008E0744916
:1023B000096831F81010744A126822F81010401C95
:1023C000704909788842F2DB4FF0000900259FED43
:1023D0006F8B9FED6E9B9FED6DAB102124E0002075
:1023E00000BF674A126832F910200B18DFF898C155
:1023F000DCF800C03CF913309A4208D1814500E076
:1024000030E101DA8146CDB2421CD0B200E009E0F1
:102410005C4A1278521E824204DD002802DD0A184E
:10242000112ADEDB00BF491E0029D8DA55480078A2
:102430002844113847B2002F11DA284609E0411B21
:102440004F4A126832F811104F4A126822F81010E1
:10245000401C4C49097829448142F0DCC8E0002046
:1024600009E03918484A126832F81110464A1268D1
:1024700022F81010401C43490978C1F11101814232
:10248000EFDC40490978C1F111000DE0A0F1110124
:102490003C4A127811443A4A126832F811103A4A0A
:1024A000126822F81010401C1128EFDB002013E006
:1024B0003549096831F9101000EE101AB8EEC00A5B
:1024C000DFED340A80EE201A41F2F411694401EB89
:1024D000800181ED001A401C1028E9DB41F2F01266
:1024E0006A441021101D0CF007FB41F2F4106844FF
:1024F00001F030F810EE10AA504612F037FF41EC10
:10250000180B0DF5805292ED7C0A02F5FA7000F07E
:10251000E5FE10EE10AA504612F028FF41EC190B10
:102520000DF5805292ED7C0A02F5FA7000F092FDF2
:1025300010EE10AA504612F019FF41EC1A0B9FED55
:10254000160B53EC102B51EC180B12F0BDFC4ED2B5
:102550009FED130B28E00000590000209C00002094
:102560009B00002064000020949600209499002095
:10257000A4000020B800002088000020089A002055
:10258000AC0000208C000020A8000020000000000B
:102590000000000000004842333333333333E33F5D
:1025A000000000000000F83F53EC102B51EC190B19
:1025B00012F08AFC1BD29FEDFE0B53EC102B51EC5A
:1025C0001A0B12F081FC12D2FB48007811F088FA45
:1025D000FA480078401C40B2F84908708021012078
:1025E00006F0D4FB01F07EFC0020F549088000BF16
:1025F0000026F44806F026FAF249B1F90000002856
:1026000001DB014600E0414231440EB2ED4806F0E4
:1026100039FAEC49B1F90000002801DB014600E07D
:10262000414231440EB2E74806F04CFAE549B1F9AF
:102630000000002801DB014600E0414231440EB2B7
:102640003146E1480078B0EE4A2AF0EE6A2AB0EE50
:10265000491AF0EE691AB0EE480AF0EE680A11F075
:1026600013FE00BFD9480088B0F5487F03DB4FF464
:10267000C870D649088000BFA41CD5480088844291
:10268000FFF680AD0020D2490880F5E3D1480078FC
:1026900001287DD1C94800780028FAD1CC480088AB
:1026A0000028F2D000260024A0E304EB4400CA492D
:1026B000085C00F00F00012817D104EB440001442E
:1026C0000A88897842EA014040F31310C349086040
:1026D000601C00EB4000C04901440A88897842EA46
:1026E000014040F31310BD49486004EB4400BA496F
:1026F000085C00F00F0002280AD104EB44000144FA
:102700000A88897842EA014040F31310B34988608F
:1027100004EB4400B049085C00F00F00032817D117
:1027200004EB440001440A88897842EA014040F3FE
:102730001310AA49C860601C00EB4000A649014480
:102740000A88897842EA014040F31310A3490861DE
:1027500004EB4400A049085C00F00F0004280CD1F1
:1027600004EB440001440A88897842EA014040F3BE
:1027700013109A494861701CC6B2012E7ED1002602
:10278000964800689549C968411A0DF5805000E0E7
:1027900077E3C0F8B41E9148406890490969411A2E
:1027A0000DF58050C0F8B81E8C4880688B49496987
:1027B000411A0DF58050C0F8BC1ED0F8B41ED0F8F8
:1027C000B80E01440DF58050D0F8BC0E084400EE60
:1027D000100AB8EEC00AF0EE080A80EE201AB0EE39
:1027E00041BA7F4800687949098800EB810080ED93
:1027F00000BA76480088FA2808DB74480088FA385E
:102800007749096801EB800080ED00BA6F480088C5
:10281000401C6E4908806A48008814287DDD0846FF
:102820000088FA2879DB6F480088FA28FADB012053
:10283000634908804FF47A7141F6CC206844FEF772
:10284000CAF84FF47A7141F2E4606844FEF7C3F8C5
:102850004FF47A7141F2FC206844FEF7BCF84FF463
:102860005E710DF68470FEF7B6F84FF45E710DF6EA
:102870000C40FEF7B0F84FF47A7100E0B5E20DF2CB
:10288000D470FEF7A8F84FF47A71FBA8FEF7A3F80E
:102890004FF47A7101A8FEF79EF800204BE04B49F7
:1028A0000988FA3901444E4A126802EB810191ED20
:1028B000000A46490988FA39494A126802EB81013F
:1028C000D1ED000A30EE600A0DF2D47101EB800107
:1028D00081ED000A43490988FA390144424A52F815
:1028E000212040490988FA393F4B53F82110511AE9
:1028F00000EE101AB8EEC00A01A901EB800181EDCB
:10290000000A38490988FA390144384A52F8212026
:1029100034490988FA39354B00E05DE253F821105B
:10292000511A00EE101AB8EEC00AFBA901EB8001A3
:1029300081ED000A401CFA28B1DBFA2341F6CC22D3
:102940006A440DF2D4712A480BF0E0FCFA2341F2FC
:10295000E4626A4401A926480BF0D8FCFA2341F24C
:10296000FC226A44FBA922480BF0D0FC00201BE0AB
:10297000014600EBD1725210323241F6CC236B4447
:1029800003EB820292ED000A1A4A126802EB8002FF
:1029900082ED000A9FED180A16490A68411C02EBF5
:1029A000810181ED000A801CC828E1DB012325E0BC
:1029B0009A9999999999C93F980000209B00002005
:1029C00088000020840000208C000020B800002037
:1029D000640000209C000020949600209499002020
:1029E000A4000020BA000020FCA100202C9A0020A6
:1029F000089A0020B0000020000000000022FE48DD
:102A00000168FE480AF0F5FD4FF40062FC480168D9
:102A1000F94800680BF0C4FB4FF48041F6480068A9
:102A2000FDF7D9FF4FF45E72F5480168C4310DF629
:102A30008470FDF774FF00230DF60842DE210DF6C9
:102A400084700CF093F8DE220DF684710DF5406071
:102A500090ED020AB1EE400A08460CF017F900E0CA
:102A6000C8E200230DF60442DE210DF684700BF05F
:102A7000EBFF0DF5406090ED010AF7EE000A80EEE5
:102A8000801AF0EE41BADE220DF68471B0EE6B0AC8
:102A900008460CF0BDFE00201BE0014600EBD172A1
:102AA0005210323241F2E4636B4403EB820292ED46
:102AB000000AD14A126802EB800282ED000A1FED83
:102AC000320ACD490A68411C02EB810181ED000AFE
:102AD000801CC828E1DB01230022C7480168C748E1
:102AE0000AF087FD4FF40062C5480168C2480068DB
:102AF0000BF056FB4FF48041BF480068FDF76BFFB9
:102B00004FF45E72BE480168C4310DF60C40FDF70B
:102B100006FF00230DF60842DE21101D0CF026F8FA
:102B2000DE220DF60C410DF5406090ED020AB1EE8B
:102B3000400A0C300CF0AAF800230DF60442DE2106
:102B40000DF60C400BF080FF0DF5406090ED010A92
:102B5000F7EE000A80EE801AF0EE41BADE220DF6A2
:102B60000C41B0EE6B0A0C300CF052FE0DF54062D9
:102B7000DE210DF60C400BF0BFFFDDF8000C12F06B
:102B8000F5FB41EC1C0B9FED9F0B53EC102B12F04F
:102B900061F807D2DE230DF684720DF60C41104663
:102BA0000CF074FEDE230DF68472984910460CF08A
:102BB00034F89748007898B395480078401E9549B6
:102BC000096831F91050A80212F019F841EC1E0BF7
:102BD0009FED910B53EC102B11F05CFE41EC1D0BA3
:102BE0009FED8F0B53EC102B12F0D6FA41EC1C0B1F
:102BF00011F0A8FF0546002D00DA00258A48A0EB59
:102C000085014FF45E720DF64400FDF788FEDE2369
:102C10000DF684720DF6440110460BF0FEFF00BF66
:102C20000DF6FC330DF60442DE210DF684700BF038
:102C30000BFFDDF8FC0B313011F0F8FF41EC1E0BFF
:102C40009FED7A0B53EC102B12F040F841EC1D0B6A
:102C50009FED780B53EC102B12F038F841EC1C0B65
:102C600011F070FF00B26B490968694A127821F8C7
:102C700012009FED728B9FED719B9FED70AB6448CE
:102C80000078102805DA62480078401C6049087016
:102C900088E05F48007810287DD100201CE05D4965
:102CA0000A68411C32F811105A4A126822F81010B2
:102CB00058490A68411C32F9111000EE101AB8EE9A
:102CC000C00ADFED600A80EE201A0DF6BC3101EB80
:102CD000800181ED001A401C1028E0DB00204D49E6
:102CE000096808840DF6B8321021101D0BF004FF9E
:102CF0000DF6BC3000F02EFC10EE105A284612F0F3
:102D000035FB41EC180B0DF5006090EDEE0A0DF669
:102D1000BC3000F0E3FA10EE105A284612F026FB01
:102D200041EC190B0DF5006090EDEE0A0DF6BC308C
:102D300000F090F910EE105A284612F017FB41EC03
:102D40001A0B9FED410B53EC102B51EC180B12F0AA
:102D5000BBF826D29FED3E0B53EC102B51EC190B18
:102D600012F0B2F81DD29FED3C0B53EC102B51EC3E
:102D70001A0B12F0A9F814D23948007810F0B0FEFE
:102D800038480078401C40B2364908708021012044
:102D900005F0FCFF00E005E001F0A4F80020324956
:102DA000088000BF3148007828B11A490968B1F994
:102DB00000000EF0CDFE00210846B0EE4A2AF0EEEB
:102DC0006A2AB0EE491AF0EE691AB0EE480AF0EE3F
:102DD000680A11F059FA00BF25480088B0F5FA7F5B
:102DE00002DBFA202249088000BFA41C2148008889
:102DF0008442FFF65AAC40E0B000002014130508EE
:102E0000B4000020333333333333D33F44C001089D
:102E10008D000020A8000020000000000070874006
:102E200000000000008048405CBC01080000000079
:102E30000000893F0000000000004E40000000003C
:102E40000000000000007042666666666666E63F47
:102E5000000000000000E03FB81E85EB51B8AE3F17
:102E6000980000209B000020880000208E00002099
:102E7000B8000020640000205DE000206849088060
:102E8000C8E06848007801283BD1674800780028EE
:102E9000F6D000242CE0654951F82410881300284E
:102EA00001DB014600E0414242F2107291421EDD18
:102EB0005F48007850B101F067F920B1CA205D4940
:102EC000088001F069F801205B4908705B480078D0
:102ED00010F006FE53480078401C40B2514908707B
:102EE00001205749088000205649087004E0641CFE
:102EF0004D4800788442CEDB00BF00204A4908706C
:102F000088E048480078022816D100204649087019
:102F10004B48008832287DDB4848007810F0E0FDFF
:102F200000F0E0FF0120464908803E480078401C40
:102F300040B23C4908706DE03A480078032822D13D
:102F40003D48007808B10CF08FFF3D480088B0F58F
:102F5000967F5FDB3948007810F0C2FD3648007874
:102F600050B101F0F7F820B1CA203249088001F0D1
:102F700013F80020304908702A480078401C40B2FD
:102F80002849087046E027480078042813D1032216
:102F90002DA12E48FDF727FCF8B92848007810F03D
:102FA0009FFD00202A4908701E480078401C40B24E
:102FB0001C4908702EE01B48007805280ED100F04F
:102FC000D3FE00F025FE1D48007810F089FD15485D
:102FD0000078401C40B2134908701BE0114800788B
:102FE000062817D100F0C0FEA0B1CD2011490880FD
:102FF00000F0D2FF10F07CFF0D4908700846007801
:1030000040B10E48007810F06BFD01200C4908809B
:1030100000F068FF0DF5F65DBDEC0E8BBDE8F087A6
:10302000640000209B0000206200002030960020F9
:10303000590000208A0000208E0000209800002007
:10304000880000208600002053435300C5990020CB
:103050006A00002030B52DED088B8FB00546B0EE2C
:10306000408A3C216846FDF7B6FC9FED350AF0EE3C
:10307000408A01243CE005EB840090ED000A601ECC
:1030800005EB8000D0ED000A30EE600A601E694654
:1030900001EB800080ED000A601E6A4602EB8000B2
:1030A00090ED000A10EE101A084612F05FF941EC9C
:1030B0001B0B9FED241BB0EE4B0AF0EE6B0A09F0E0
:1030C00003FAB0EE40AAF0EE60AA51EC1A0B11F030
:1030D000F3FA611E4DF82100601E694601EB800085
:1030E00090ED000A30EE280AF0EE408A601CC4B26F
:1030F000102CC0DBB2EE0E0AC8EE800A10EE904A29
:10310000204612F033F941EC1B0BB0EE4B0AF0EE07
:103110006B0A0AF071F8B0EE40AAF0EE60AA51EC2A
:103120001A0B11F0C9FA09EE100A89EE080AB0EE7E
:10313000409AB0EE490A0FB0BDEC088B30BD0000DC
:103140000000000000000000000000402DE9F047F2
:103150002DED028BADF5167D064688460024C8216C
:1031600064A8FDF738FC4FF4C8716846FDF733FCDE
:103170004FF00F0AA146642546E0681E06EB80006A
:1031800090ED000A06EB8500D0ED000AB4EEE00AEF
:10319000F1EE10FA35D209F1010000F0FF0906EB5B
:1031A000850090ED000A681C06EB8000D0ED000A57
:1031B000B4EEE00AF1EE10FA25DD484611F036FDD6
:1031C00041EC180B9FED420B53EC102B11F07CFEE1
:1031D00019D206EB850090ED000AB5EEC00AF1EEBB
:1031E00010FA10DD64A921F8145006EB850090ED6B
:1031F000000A684600EB840080ED000A601CC4B23F
:1032000001E04FF000096D1CB5F5C77FB5DD00206A
:1032100040E064AA411C32F8111032F81020891ADB
:10322000514536DC6A4602EB800292ED000A6B469D
:10323000421C03EB8202D2ED000AB4EEE00AF1EE8A
:1032400010FA01DD411C00E0014611E06B464A1C0A
:1032500003EB820292ED000A6A4602EB810282EDE4
:10326000000A64AB4A1C33F8122023F81120491CD1
:10327000621E8A42EADC9FED180A6B4603EB82026B
:1032800082ED000A0023621E64AD25F81230D4B22C
:1032900000BF401C611E8142BBDC002700200CE007
:1032A00064AA411C32F8111032F81020891A09B2B0
:1032B00028F81710791CCFB2401C611E8142EFDC48
:1032C00038460DF5167DBDEC028BBDE8F087000099
:1032D0000000000000001440000000002DE9F0474D
:1032E0002DED0E8BB6B08246F0EE408A01259FEDA3
:1032F000950AF0EE409A3C2127A8FDF76CFB782157
:1033000009A8FDF768FB00264FF00009002025E022
:103310004119491E0AEB810191ED000AC0EE280A0D
:1033200027A901EB8001C1ED000A002111E042183C
:103330000AEB820292ED000AC0EE280AC1EB0112EC
:1033400009AB03EB820202EB8002C2ED000A4A1CC9
:10335000D1B26A1C9142EADB411CC8B2C5F110012E
:103360008142D5DC0027B7E0002005900690079049
:1033700008900190029003900490002497E0BC42D2
:103380007DD09FED710AB0EE40EA9FED6F0AB0EE7E
:10339000409A27A800EB870090ED000A27A800EBD1
:1033A0008400D0ED000A30EE600A10EE101A0846D4
:1033B00011F0DCFF41EC1B0BB0EE4B0AF0EE6B0A98
:1033C00008F0C2FFB0EE40AAF0EE60AA51EC1A0B72
:1033D00011F072F90EEE100A4FF0000839E0C8EB58
:1033E000081009AA02EB800000EB870090ED000AAC
:1033F000C8EB081002EB800000EB8400D0ED000A5F
:1034000030EE600A10EE101A084611F0AFFF41ECE2
:103410001D0B9FED4E1BB0EE4D0AF0EE6D0A09F04C
:1034200053F8B0EE40BAF0EE60BA19EE100A11F09F
:103430009DFF41EC1C0B53EC1B2B11F06FF941EC81
:103440001A0B11F039F909EE100A08F1010000F029
:10345000FF08681C8045C2DB19EE100A11F086FFD8
:1034600041EC1B0BB0EE4B0AF0EE6B0A09F0C4FE08
:10347000B0EE40AAF0EE60AA51EC1A0B00E014E0A6
:1034800011F01AF909EE100AB4EEE9EAF1EE10FAB9
:1034900002D8012005A90855B4EEE99AF1EE10FA18
:1034A00002D8012001A9085500BF601CC4B2C5F1B3
:1034B0001000A0423FF763AF002009E005A9095CB6
:1034C00031448EB201A9095C49441FFA81F9401CBC
:1034D0001028F3DB781CC7B2C5F11000B8423FF7E3
:1034E00043AF16B99FED188A25E0B9F1000F10D14E
:1034F00000EE106AB8EE400AF7EE000A80EE801A7D
:10350000B0EE419AB0EE490A08F028FFB1EE408AC9
:1035100011E000EE109AF8EE400A00EE106AB8EEE4
:10352000400A80EE801AB0EE419AB0EE490A08F0E7
:1035300015FFB1EE408AB0EE480A36B0BDEC0E8BF6
:10354000BDE8F0878FC2753D00000000000000005C
:1035500000000040F0B52DED068B97B00646002028
:1035600013901490159016909FED4C0AB0EE408A7F
:10357000402103A8FDF72FFA002302AA10213046AC
:103580000BF062FA002301AA102130460BF0EEFA8C
:103590009DED020ADDED010A30EE600AF3EE000A4D
:1035A00080EE201AF0EE418AF5EEC08AF1EE10FAB4
:1035B00005D1B0EE680A17B0BDEC068BF0BD002453
:1035C00026E006EB840090ED000ADDED010A30EE06
:1035D000600AC0EE280A10EE907A384611F0C6FE56
:1035E00041EC1A0BB0EE4A0AF0EE6A0A09F094FDBB
:1035F000B0EE409AF0EE609A51EC190B11F0D2FA4D
:10360000C5B213A8405D401C13A94855601CC4B244
:10361000102CD6DB002010E013A9095C00EE101A74
:10362000B8EE400AF3EE000A80EE201A03A901EB7F
:10363000800181ED001A411CC8B21028ECDB002487
:103640001FE003A800EB840090ED000AB5EEC00A6D
:10365000F1EE10FA13DD03A800EB8400D0ED000AB0
:10366000B0EE600A08F07AFE03A800EB840090ED4B
:10367000001AF0EE480A41EE000AB0EE608A601CC3
:10368000C4B2102CDDDB9FED060A08F067FEC8EE21
:10369000000AB0EE608AB0EE480A8CE70000000035
:1036A0000000803D10B501242103034801F01AF900
:1036B00000B10024204610BD000402407047000005
:1036C00010B504462146024802F0AEFC10BD0000D1
:1036D0000490002010B5044802F0B9FC042801D081
:1036E000012010BD0020FCE70490002010B500244C
:1036F00000F014F8012801D0012010BD064802F0A6
:10370000BBFD044634B94FF40061034802F052FB9C
:1037100000B101242046F0E70490002008B5012004
:103720000090FFF7BFFF08B9002000909DF800004F
:1037300008BD00002DE9F04104460D46164600275D
:1037400033462A462146044802F0CAFE00B101274A
:103750003846BDE8F08100000490002001200149B6
:1037600008607047C80000202DE9F04104460D466E
:103770001646002733462A462146044802F062FFD7
:1037800000B101273846BDE8F08100000490002018
:103790000120014908607047C400002010B50022D4
:1037A0000821824801F0A6F8642000F063FF80A0A1
:1037B000FCF77EFE642000F05DFF00E010BD7D4858
:1037C00000780028FAD000207A4908707AA0FCF727
:1037D0006FFE642000F04EFF00E0EFE775480078D0
:1037E0000028FAD0002073490870082276A1794891
:1037F000FCF7F9FF002872D177A0FCF759FE64208E
:1038000000F038FF00E0D9E76A4800780028FAD0D5
:10381000002068490870032274A16E48FCF7E3FF9A
:1038200028B14FF496707249088000F0B5FB71A082
:10383000FCF73EFE642000F01DFF00E0BEE75D489F
:1038400000780028FAD000205A490870032267A1A6
:103850006048FCF7C8FF28B14FF4967064490880AF
:1038600000F09AFB68A0FCF723FE642000F002FF42
:1038700000E0A3E74F4800780028FAD000204D4927
:103880000870032259A15348FCF7ADFF28B14FF44B
:1038900096705749088000F07FFB61A0FCF708FE96
:1038A000642000F0E7FE00E088E742480078002846
:1038B000FAD000203F49087003224CA14548FCF78C
:1038C00092FF28B14FF496704949088000F064FBDC
:1038D00057A0FCF7EDFD642000F0CCFE01E04FE0C6
:1038E0006CE7344800780028FAD00020314908708D
:1038F00003223EA13748FCF776FF28B14FF49670BB
:103900003B49088000F048FB4DA0FCF7D1FD642046
:1039100000F0B0FE00E051E7264800780028FAD019
:10392000002024490870032230A12A48FCF75BFFDD
:1039300028B14FF496702E49088000F02DFB45A069
:10394000FCF7B6FD642000F095FE00E036E719486C
:1039500000780028FAD0002016490870032223A11D
:103960001C48FCF740FF28B14FF4967020490880AE
:1039700000F012FB4FF47A7000F07CFE08F0C4FCFB
:10398000082237A11348FCF72EFF28B14FF4967098
:103990001749088000F000FB01220821034800F0CD
:1039A000A9FF01203149087000BF07E7000002406D
:1039B000415400006A00002041542B44455653579F
:1039C0005645523F000000002B4F4B3D56312E30E4
:1039D00000000000AC99002041542B4445564D4155
:1039E0004E55463D42414D49000000002B4F4B00D3
:1039F0008A00002041542B44455653455249414CBE
:103A00003D3030303100000041542B4445564D4F7D
:103A100044454C3D526568616230312D3030310093
:103A200041542B44455649443D303030310000006C
:103A300041542B4E414D453D526568616230310025
:103A400041542B44455653575645523D56312E311D
:103A50000000000041542B52455345540000000023
:103A60002B4F4B3D56312E31000000005B000020F3
:103A700000BFFEE710B5024800F01CFC10BD0000BE
:103A8000D095002010B5024800F014FC10BD0000D5
:103A90005092002010B5024800F00CFC10BD000050
:103AA000B092002010B5024800F004FC10BD0000E8
:103AB0001093002010B5024800F0FCFB10BD000080
:103AC0007093002010B5024800F0F4FB10BD000018
:103AD0008890002010B5024800F0ECFB10BD0000FB
:103AE000D093002010B5024800F0E4FB10BD0000A8
:103AF0003094002010B5024800F0DCFB10BD00003F
:103B0000E89000200146087810381823B0FBF3F243
:103B10000848805CC865032A05D908686FF3090066
:103B2000001D886503E008686FF309008865886DEB
:103B300070470000D0C30108014600208A6A8B69E3
:103B4000CBB932B1012A0DD0022A03D0032A10D1F9
:103B50000EE000BFCB6A03F08073B3F1807F00D129
:103B6000012007E0CB6AB3F1C07F00D1012001E062
:103B700000E000BF34E08B69B3F5005F1AD132B1C9
:103B8000012A07D0022A03D0032A11D10AE000BF7C
:103B900001200EE0CB6A03F08073B3F1807F00D187
:103BA000012006E0CB6AB3F1C07F00D1012000E024
:103BB00000BF15E032B1012A05D0022A04D0032A41
:103BC0000CD103E000BF00BF012008E0CB6A03F086
:103BD0008073B3F1807F00D1012000E000BF00BFFF
:103BE000704730B50468246824F4802405682C608C
:103BF000046863608468402C04D10468A26004688F
:103C0000E16003E00468A1600468E26030BD000088
:103C100010B53748007804280ED136A0FCF748FCD0
:103C200036480EC801200EF071F900285CD0CA2079
:103C30003349088000F0B0F92D480078062853D1A8
:103C40003048007838B92BA0FCF732FC2B480EC85E
:103C500001200EF05BF92B480078012828D10EF0E6
:103C600029FD04462848B0F90000844201DA2648BC
:103C700004802548B0F9001024A0FCF719FC12E0DC
:103C80001E480EC82048B0F900000EF03FF920B1E0
:103C9000CA201B49088000F07FF91B480088401E9D
:103CA00000B219490880184800880028E8D100BFF0
:103CB00014480078022817D10EF0FCFC0446214677
:103CC00012A0FCF7F5FB0CE00C480EC820460EF0E5
:103CD0001DF920B1CA200A49088000F05DF9601E74
:103CE00004B2002CF0D100BF0AA0FCF7E1FB10BD2C
:103CF000980000204F30303031000000F88F002055
:103D00008A0000209A0000205C0000204F253034FB
:103D1000640000004600000010B511480078022839
:103D20000AD00F48007838B10D480078052803D034
:103D30000B480078042801D105F056FD08480078AA
:103D400003280AD00648007838B1054800780528CD
:103D500003D003480078042801D100F0DFF810BD3B
:103D6000980000207047000010B5002450A00DF00E
:103D7000C7F8514908700846007828B1084600780D
:103D8000082801D0012010BD49A14C480DF0BBFA14
:103D9000494908700846007828B145A00DF0B0F8F0
:103DA00008B10120EFE74FF48C714548FCF713FE92
:103DB000434942480DF0F3FB3F490870084600783C
:103DC00008B10120DFE73E48007A102803D03C48C4
:103DD000007A202801D1022406E03948007A08B987
:103DE000012401E00120CEE734480DF05BF835A155
:103DF00032480DF088FA4DE04FF48C713048FCF7F2
:103E0000EAFD2F492D480DF060F82D48807D0028EF
:103E100040D100BF2C480088401C00B22A490880CD
:103E200064212A48FCF7D7FD2748B0F9002028A1D3
:103E30002648FCF749FB25491DA00DF0D7FB1E497C
:103E40000870084600780828E4D00846007808B1D1
:103E5000012098E7022C09D11FA00DF051F8164956
:103E6000087008460078A0B101208CE7012C10D121
:103E700015480088401E00B2134908800CA1134861
:103E80000DF0B4FB0C4908700846007808B1012019
:103E900079E700E0B0E700BF08480DF003F81048EC
:103EA0000088401C00B20E49088000206BE700002B
:103EB0002F6461746100000022000020244B002068
:103EC0005C4B00202F00000020000020744C0020DC
:103ED0002F4F4C44256400006461746100000000B1
:103EE0001E00002010B50FF054F804F00BFE1E2148
:103EF0000A2005F08BF90549054804F0DBFB00209A
:103F0000044908800449088010BD0000800000209A
:103F100070000020BA000020BC00002010B5144939
:103F200001200EF0C3FF1248407800F08000B8B1C5
:103F3000102110480FF034F80F4908700846007837
:103F400070B910200870002008E00A4931F82010EC
:103F5000C1F30D01074A42F82010401C1028F4DB81
:103F60000348407800F0400008B1FFF7BBFF10BDE8
:103F70005E000020309600206200002010B5102066
:103F800000F0AAFB10BD10B5202000F0A5FB80209A
:103F900000F0A2FB10BD00000EB534480088CA280E
:103FA00032D00CDC662820D004DC642813D06528CD
:103FB00043D115E0C8281DD0C9283ED11FE0CC2828
:103FC00027D0CD282AD0B0F5967F2CD0A0F2911022
:103FD000002832D12CE026A12748FCF775FA2CE006
:103FE00026A12548FCF770FA27E026A12248FCF715
:103FF0006BFA22E027A12048FCF766FA1DE028A111
:104000001D48FCF761FA18E029A11B48FCF75CFA8F
:1040100013E02AA11848FCF757FA0EE02BA1164826
:10402000FCF752FA09E02CA11348FCF74DFA04E022
:104030002BA11148FCF748FA00BF00BF00204EF248
:104040000701CDE9011028484068009026480A4A37
:10405000642103680A2007F043F840F6B83000F006
:1040600009FB72B601E008F04FF9FCE78A00002076
:104070004543472065727200EA990020505047205E
:1040800065727200505047204649464F2065727253
:1040900000000000534420627366206572720000C5
:1040A0005344204D6F756E742065727200000000DD
:1040B0005344204649464F206572720053442063A2
:1040C0006C6F7365206572720000000053442044D9
:1040D0006972206572720000426C65206572720020
:1040E000494D5520657272001400002030B5044619
:1040F0000D4600222946204600F002F830BD00009F
:10410000F0B50346012500241148407A01281CDA45
:1041100000200F4E767A0E4FB8553846467A001D6D
:1041200040F82630001F467A083082553E46707AA5
:10413000461C7E72044604F1300008703A20487034
:104140002F2088700020C87000252846F0BD000090
:10415000CCC3002010B508480CF08EFE074908704B
:1041600007480CF089FE0549087006480CF084FEEB
:1041700002490870002010BD941A0020220000207F
:10418000C42A0020F43A002010B52948008810B94C
:10419000FFF7EAFD05E026480088401C00B22449EC
:1041A00008802348B0F9002022A12748FCF78CF9A9
:1041B0001222254925480CF085FF2549087008463C
:1041C000007808B1012010BD64211F48FCF703FCF2
:1041D0001748B0F900201FA11B48FCF775F91222FF
:1041E000194921480CF06EFF1949087008460078FB
:1041F00008B10120E7E764211348FCF7ECFB0C4809
:10420000B0F9002019A11048FCF75EF912220E49FE
:104210001B480CF057FF0E4908700846007808B19B
:104220000120D0E764210848FCF7D5FB0020CAE74D
:104230001E0000202F646174612F4543475F256491
:104240002E63737600000000744C0020941A002046
:10425000220000202F646174612F5050475F256455
:104260002E63737600000000C42A00202F6461745E
:10427000612F494D555F25642E6373760000000061
:10428000F43A0020014691F83500022803D080203E
:10429000486501207047052081F8350008680068EE
:1042A00020F001000A6810600020F3E70146486D25
:1042B00070470000F8B50446002000908C48006864
:1042C0004FF41651B0FBF1F7A56D2E6894F85C1011
:1042D00008208840304098B12068006800F0040051
:1042E00070B12068006820F004002168086094F82C
:1042F0005C1008208840A860606D40F00100606597
:1043000094F85C1001208840304068B12068406912
:1043100000F0800040B194F85C1001208840A86053
:10432000606D40F00200606594F85C1004208840E5
:10433000304068B12068006800F0020040B194F895
:104340005C1004208840A860606D40F00400606547
:1043500094F85C1010208840304078B320680068E2
:1043600000F0080050B394F85C1010208840A8605A
:104370002068006800F4802080B12068006800F4A4
:10438000002028B9206CC8B12046216C884715E070
:10439000A06C98B12046A16C88470FE020680068A7
:1043A00000F4807028B92068006820F008002168B7
:1043B0000860206C10B12046216C884794F85C108E
:1043C000202088403040002865D02068006800F038
:1043D000100000285FD094F85C1020208840A8606E
:1043E00094F83500052828D12068006820F01600D0
:1043F000216808602068406920F0800021684861D9
:10440000206C08B9A06C28B12068006820F0080072
:104410002168086094F85C103F208840A86000BFC5
:10442000002084F8340000BF012084F83500206D9E
:1044300010B12046216D8847F8BD2068006800F45F
:10444000802080B12068006800F4002028B9606CEA
:1044500010B12046616C88471DE0E06BD8B1204662
:10446000E16B884717E02068006800F4807068B945
:104470002068006820F010002168086000BF00205C
:1044800084F8340000BF012084F83500E06B10B1DF
:104490002046E16B8847606D38B3606D00F0010025
:1044A000F0B1052084F835002068006820F0010094
:1044B0002168086000BF0098401C0090B84200D9F5
:1044C00005E02068006800F001000028F3D100BF7B
:1044D00000BF002084F8340000BF012084F83500BC
:1044E000E06C10B12046E16C884700BFA4E70000F3
:1044F000E00000202DE9F0410446002500F000FA1C
:10450000074614B90120BDE8F081606A00B100BF20
:1045100000BF002084F8340000BF022084F835007A
:104520002068006820F00100216808600AE000F0BF
:10453000E7F9C01B052805D920206065032084F811
:104540003500E0E72068006800F001000028EED1A7
:104550002068056821480540D4E901010843E16865
:1045600008432169084361690843A1690843E16977
:104570000843216A08430543606A042803D1D4E94B
:104580000B0108430543206805602068456925F054
:104590000705606A0543606A04280DD1A06A0543D7
:1045A000E06A48B12046FFF7C7FA28B140206065AD
:1045B000012084F83500A6E7206845612046FFF712
:1045C000A1FA064694F85C103F208840B0600020B5
:1045D0006065012084F83500002094E73F8010E0FA
:1045E0002DE9F04704460D4616461F464FF00008D9
:1045F000D4F8589000BF94F83400012802D102206A
:10460000BDE8F087012084F8340000BF94F835003D
:10461000012825D1022084F83500002060653B4642
:10462000324629462046FFF7DCFA94F85C103F201A
:104630008840C9F808002068006840F0160021682A
:104640000860206C28B12068006840F008002168EC
:1046500008602068006840F001002168086006E0FA
:1046600000BF002084F8340000BF4FF0020840462D
:10467000C6E7000070B5044600F042F9064625463C
:10468000681C10B104480078054400BF00F038F9F8
:10469000801BA842FAD370BDDC000020202803D183
:1046A0000121094A11700AE0102803D10121074AAB
:1046B000117004E0802802D10121054A1170012106
:1046C000044A1170704700008F0000209100002004
:1046D000900000209200002010B5044604480068B5
:1046E000204020B1024804602046FFF7D7FF10BDEC
:1046F000143C0140F8B502460B460025002400207A
:104700000021D7E0012606FA01F51E6806EA050435
:10471000AC4273D15E68012E08D05E68022E05D0CF
:104720005E68112E02D05E68122E13D190684F0081
:104730000326BE40B0434F00DE68BE403043906069
:10474000506801268E40B0431E79C6F300168E4095
:1047500030435060D0684F000326BE40B0434F0046
:104760009E68BE403043D0605E68022E02D05E6814
:10477000122E13D1CF0802F1200656F827004E075B
:10478000F70E0F26BE40B0434F07FF0E1E69BE4016
:104790003043CF0802F1200646F8270010684F008A
:1047A0000326BE40B0431E7906F003064F00BE400C
:1047B000304310605E6806F08056B6F1805F78D1B5
:1047C00000BF002600963D4E366846F480463B4FBB
:1047D0003E603E46366806F48046009600BF00BF45
:1047E000374E8F0856F827008E07370F0F26BE402A
:1047F000B043344EB24202D100261FE059E0324E9F
:10480000B24201D1012619E0304EB24201D1022656
:1048100014E02F4EB24201D103260FE02D4EB242DA
:1048200001D104260AE02C4EB24201D1052605E052
:104830002A4EB24201D1062600E007268F073F0F1D
:10484000BE4030431E4E8F0846F82700244E306885
:10485000A0435E6806F48036B6F5803F00D1204361
:104860001F4E3060361D3068A0435E6806F4003687
:10487000B6F5003F00D12043194E361D3060361D7D
:104880003068A0435E6806F48016B6F5801F00D13C
:104890002043134E08363060361D3068A0435E68F2
:1048A00006F40016B6F5001F00D120430C4E0C365E
:1048B0003060491C1029FFF425AFF8BD4438024090
:1048C0000838014000000240000402400008024095
:1048D000000C024000100240001402400018024088
:1048E000003C0140024613690B400BB1012000E07F
:1048F000002070470AB1816101E00B0483617047B9
:104900000148006870470000D400002070B50446DC
:104910000CB9012070BD94F83D0028B9002084F83E
:104920003C00204600F006FB242084F83D0020686F
:10493000006820F00100216808602068006840F4E9
:104940000040216808602068006820F40040216869
:10495000086000F08DFF05465C496068884206D813
:104960005B48854201D2012007E0002005E059485C
:10497000854201D2012000E00020012800D1C9E7D2
:104980005548B5FBF0F62068406820F03F00304302
:10499000216848604D496068884201D8701C07E072
:1049A0004FF4967070434FF47A71B0FBF1F0401CF5
:1049B0002168096A21F03F010843216808624349E0
:1049C0006068884214D8681E61684900B0FBF1F045
:1049D000401CC0F30B00042801D204203DE0681EF7
:1049E00061684900B0FBF1F0401CC0F30B0034E0FB
:1049F000A06838B9681E616801EB4101B0FBF1F0B5
:104A0000401C0AE0681E616801EBC10202EB011163
:104A1000B0FBF1F0401C40F48040C0F30B0008B93B
:104A200001201AE0A06848B9681E616801EB4101E5
:104A3000B0FBF1F0401CC0F30B000CE0681E616895
:104A400001EBC10202EB0111B0FBF1F0401CC0F31D
:104A50000B0040F4804040F400402168C9694CF6E6
:104A6000FF72914308432168C861D4E907010843F4
:104A70002168096821F0C001084321680860D4E971
:104A8000031008432168896848F2FF3291430843C4
:104A900021688860D4E9050108432168C96821F0CC
:104AA000FF0108432168C8602068006840F00100E9
:104AB0002168086000202064202084F83D00002048
:104AC000206384F83E0000BF24E70000A0860100B8
:104AD00080841E0000093D0040420F002DE9FC5F6C
:104AE00004460F4690469946DDE90CAB0E9EFFF753
:104AF00007FF054694F83D00202870D119230122B4
:104B0000B0492046009503F049FC10B10220BDE8F1
:104B1000FC9F00BF94F83C00012801D10220F6E779
:104B2000012084F83C0000BF2068006800F001000C
:104B300028B92068006840F00100216808602068FA
:104B4000006820F4006021680860222084F83D009D
:104B5000402084F83E0000202064C4F824A0A4F87B
:104B60002AB0608D20859848E0624B46424639461F
:104B70002046CDE9006503F0C9FA08B10120C6E777
:104B8000208D88B900BF0020019020684069019005
:104B900020688069019000BF00BF2068006840F471
:104BA00000702168086040E0208D012818D120683D
:104BB000006820F480602168086000BF0020019038
:104BC00020684069019020688069019000BF00BFA3
:104BD0002068006840F400702168086025E0EFE07C
:104BE000208D022816D12068006820F4806021689A
:104BF00008602068006840F400602168086000BF19
:104C0000002001902068406901902068806901902F
:104C100000BF0AE000BF00200190206840690190B9
:104C200020688069019000BF00BFBAE0208D032892
:104C30007ED8208D012815D12A463146204603F022
:104C400052FC08B1012062E720680069616A0870BF
:104C5000606A401C6062208D401E2085608D401E71
:104C600060859EE0208D02282AD1334600225749D4
:104C70002046009503F092FB08B1012047E7206829
:104C8000006840F400702168086020680069616A6B
:104C90000870606A401C6062208D401E2085608D17
:104CA000401E608520680069616A0870606A401C67
:104CB0006062208D401E2085608D401E608570E002
:104CC0003346002241492046009503F067FB08B1B6
:104CD00001201CE72068006820F4806021680860DB
:104CE00020680069616A0870606A401C6062208DFB
:104CF000401E2085608D401E60853346002233496A
:104D00002046009503F04AFB08B10120FFE6206829
:104D1000006840F400702168086020680069616ADA
:104D20000870606A401C6062208D401E208500E093
:104D300010E0608D401E608520680069616A08701F
:104D4000606A401C6062208D401E2085608D401E80
:104D5000608526E02A463146204603F0C4FB08B1B0
:104D60000120D4E620680069616A0870606A401C0E
:104D70006062208D401E2085608D401E6085206809
:104D80004069C0F3800060B120680069616A087002
:104D9000606A401C6062208D401E2085608D401E30
:104DA0006085208D00287FF441AF202084F83D00ED
:104DB000002084F83E0000BF84F83C0000BFA6E657
:104DC0000220A4E6020010000000FFFF0400010022
:104DD0002DE9FC5F04460F4690469946DDE90CAB91
:104DE0000E9EFFF78DFD054694F83D0020287DD1ED
:104DF000192301224D492046009503F0CFFA10B146
:104E00000220BDE8FC9F00BF94F83C00012801D1BE
:104E10000220F6E7012084F83C0000BF206800680B
:104E200000F0010028B92068006840F00100216806
:104E300008602068006820F4006021680860212074
:104E400084F83D00402084F83E0000202064C4F82F
:104E500024A0A4F82AB0608D20853548E0624B4636
:104E6000424639462046CDE9006503F0FBF908B11A
:104E70000120C6E731E02A463146204603F073FBA5
:104E800050B1206C042805D12068006840F40070FF
:104E9000216808600120B4E7606A00782168086131
:104EA000606A401C6062208D401E2085608D401E1F
:104EB000608520684069C0F3800070B1208D60B1CA
:104EC000606A007821680861606A401C6062208D19
:104ED000401E2085608D401E6085208D0028CAD12F
:104EE0002A463146204603F02BFA00E01CE050B180
:104EF000206C042805D12068006840F40070216807
:104F0000086001207DE72068006840F40070216897
:104F10000860202084F83D00002084F83E0000BF97
:104F200084F83C0000BF6CE702206AE70200100032
:104F30000000FFFF10B586B00446142101A8FBF75E
:104F40004AFD1B49206888422FD100BF00200090F5
:104F50001848006840F002001649086008460068DA
:104F600000F00200009000BF00BFC020019012209E
:104F7000029001200390032004900420059001A9D1
:104F80000D48FFF7B7FB00BF002000900948103024
:104F9000006840F4001007491031086008460068B6
:104FA00000F40010009000BF00BF06B010BD00006C
:104FB00000540040303802400004024070B50446FE
:104FC0000CB9012070BD4CF6CC402168086045F258
:104FD000555021680860D4E9001048602168A06835
:104FE0008860FFF78DFC054606E0FFF789FC401B53
:104FF000302801D90320E5E72068C0680028F4D1F3
:105000004AF6AA20216808600020DBE701464AF63C
:10501000AA200A681060002070470000034800685A
:10502000034909780844014908607047D40000200A
:10503000DC00002010B50D48006840F400700B49FA
:1050400008600846006840F4806008600846006810
:1050500040F480700860032000F0C2F80F2000F0D8
:1050600007F800F04BF8002010BD0000003C0240A3
:1050700070B588B00446002500260022214619207C
:1050800000F070F8192000F05DF800BF00200190DA
:105090001648006840F0010014490860084600689E
:1050A00000F00100019000BF00BF02A903A800F0BA
:1050B000B7FB00F0EDFB05460D48B5FBF0F0461ED2
:1050C0000C480D49086040F2E7310B48C16046606A
:1050D00000210161816002F0B1F920B9064802F0B7
:1050E00009FA08B070BD0120FBE700004438024017
:1050F00040420F00000001403CC1002008B500BF45
:10510000002000900E48006840F480400C49086080
:105110000846006800F48040009000BF00BF00BF58
:1051200000200090081F006840F08050091F0860B0
:105130000846006800F08050009000BF00BF08BD26
:105140004438024001460846002809DB00F01F03EE
:1051500001229A4043099B0003F1E023C3F8002198
:1051600000BF70472DE9F05F80460D4616460027C8
:1051700007F08EF8074639462A46334601F0070005
:10518000C0F1070ABAF1040F02D94FF0040A01E096
:10519000C0F1070AD14600F1040ABAF1070F02D2A2
:1051A0004FF0000A01E0A0F1030AD4464FF0010AD3
:1051B0000AFA09FAAAF1010A0AEA020A0AFA0CFA38
:1051C0004FF0010B0BFA0CFBABF1010B0BEA030BDD
:1051D0004AEA0B042146404607F062F8BDE8F09F1A
:1051E00000BF00F00702064B19684FF6FF03194095
:1051F000044B0B4343EA0221014B196000BF704787
:105200000CED00E00000FA05024949688143014ABB
:105210005160704700700040024949680143014AEB
:1052200051607047007000400748006840F002007D
:10523000054908600548006840F00400034908601B
:1052400000BF00BF30BF70470070004010ED00E0AD
:105250002DE9F8430446002500260027A8462078BB
:1052600000F0010058B1FE48006820F0C060E1691C
:105270000843FB490860E06908B94FF0010820784D
:1052800000F0020002280BD1F548006820F0C05061
:10529000216A0843F2490860206A08B94FF0010802
:1052A000208800F40050B0F5005F19D1EC48006888
:1052B00020F44010A16C0843E9490860A06C08B9CB
:1052C0004FF00108A06CB0F5001F09D1E448006858
:1052D00020F4F8516069401E41EA0020E04908606E
:1052E000208800F48040B0F5804F19D1DC48006878
:1052F00020F44000E16C0843D9490860E06C08B92B
:105300004FF00108E06CB0F5000F09D1D4480068F7
:1053100020F4F8516069401E41EA0020D04908603D
:10532000207800F0080008287ED100BF00200090FF
:10533000CB484C38006840F08050C9494C3908606F
:105340000846006800F08050009000BF00BFC548CC
:10535000006840F48070C3490860FFF7D1FA054641
:1053600007E0FFF7CDFA401B022802D90320BDE871
:10537000F883BC48006800F480700028F1D0B84879
:105380001C38006800F440764EB3A08C00F44070E6
:10539000B04224D0B2481C38006820F44076012086
:1053A000B149086000200860AD481C3806600068FC
:1053B00000F0010098B1FFF7A3FA054608E0FFF7F7
:1053C0009FFA401B41F28831884201D90320CEE781
:1053D000A3481C380068C0F340000028EFD000BF8D
:1053E000A08C00F44070B0F5407F0CD19C4884380C
:1053F000006820F4F8109D4A616A114008439849FA
:105400008439086007E096488438006820F4F81072
:1054100093498439086092481C380068A18CC1F314
:105420000B0108438E4900E002E01C39086000BF10
:10543000207800F00400042803D194F854008C492B
:105440000860207800F01000102809D18448083046
:10545000006820F44000E16A08438149083108608F
:10546000207800F0200020280FD17D480830006807
:1054700020F00060216B0843794908310860206BF7
:10548000B0F1006F01D14FF00108207800F040002A
:10549000402809D172480830006820F08050A16A85
:1054A00008436F4908310860B8F1010F02D0206845
:1054B00080287DD100206F498866FFF721FA0546D4
:1054C00006E0FFF71DFA401B022801D903204EE732
:1054D00063488C380068C0F3C0600028F1D1664989
:1054E000206D0860207800F0010008B1E069D0B1BB
:1054F000207800F00200022801D1206A98B12078BB
:1055000000F02000202803D1206BB0F1006F0AD0FA
:10551000207800F04000402812D1A06A80B9206BAA
:10552000B0F1006F0CD1D4E9011041EA8011207B69
:1055300041EA0061207C41EA00704949083908606D
:10554000208800F40050B0F5005F01D1A06C38B1A4
:10555000208800F48040B0F5804F1BD1E06CC8B9C2
:105560003F4808380068C0F30367D4E9011041EAF6
:10557000801040EA0761207C41EA00703849083910
:1055800008603748006820F01F00A169491E0843E1
:1055900033490860207800F0800080280ED1D4E9DB
:1055A000011041EA8011207B41EA0061207C00E08B
:1055B00019E041EA00702A490839086001202D49A4
:1055C0008866FFF79DF9054606E0FFF799F9401B4D
:1055D000022801D90320CAE621488C380068C0F3AC
:1055E000C0600028F1D0208800F48070B0F5807F82
:1055F00007D11B48006820F00040616B0843184940
:105600000860208800F40070B0F5007F07D11448CE
:10561000006820F40040A16B08431149086020880D
:1056200000F48060B0F5806F07D10D48006820F06D
:105630000040E16B08430A490860208800F40060DC
:10564000B0F5006F07D10648006820F48040216C57
:10565000084303490860208800F480500EE00000F1
:105660008C38024000700040400E4742FFFCFF0FA4
:10567000E011474200004742D8104742B0F5805F32
:1056800007D10548006820F04040616C084302499A
:10569000086000206BE600009438024070B50446B4
:1056A0000D460CB9012070BD5848006800F00F008D
:1056B000A84209D255490D700846006800F00F0055
:1056C000A84201D00120EEE7207800F00200022875
:1056D0001DD1207800F00400042805D14C48006852
:1056E00040F4E0504A490860207800F0080008289B
:1056F00005D14748006840F4604045490860444887
:10570000006820F0F000A168084341490860207853
:1057100000F00100A8B36068012807D13C480838B0
:105720000068C0F34040B8B90120BCE760680228B7
:1057300002D06068032807D1354808380068C0F3F4
:10574000406048B90120AEE7314808380068C0F32E
:10575000400008B90120A6E72D48006820F00300AA
:10576000616808432A490860FFF7CAF8064609E05D
:10577000FFF7C6F8801B41F28831884202D9032026
:1057800091E707E02248006800F00C006168B0EB88
:10579000810FEDD11D48006800F00F00A84209D923
:1057A0001A490D700846006800F00F00A84201D0A9
:1057B000012078E7207800F00400042807D114487D
:1057C000006820F4E050E16808431149086020783F
:1057D00000F00800082808D10D48006820F4604057
:1057E000216940EAC1000A49086000F061F80849EF
:1057F0000968C1F30311074A515CC84006490860B3
:1058000006480068FFF734FC00204CE7003C0240EB
:105810000838024054140508E0000020D800002099
:105820000F2202600D4A126802F0030242600B4A26
:10583000126802F0F0028260084A126802F4E05234
:10584000C260064A126802F46042D2080261044A49
:10585000126802F00F020A60704700000838024028
:10586000003C02400148006870470000E000002052
:1058700000B5FFF7F7FF04490968C1F38221034A25
:10588000515CC84000BD000008380240641405089F
:1058900000B5FFF7E7FF04490968C1F34231034A45
:1058A000515CC84000BD000008380240641405087F
:1058B0002DE9F047002400250026A1462548006870
:1058C00000F00C0020B1042805D008283AD105E0EA
:1058D000DFF8849039E0DFF8849036E01D48001F3F
:1058E000006800F03F041B48001F006800F48000BF
:1058F00078B11A481749091F0968C1F38811A0FB3C
:1059000001700146224600233846FAF759FD054644
:105910000EE011480F49091F0968C1F38811A0FB67
:1059200001700146224600233846FAF749FD054634
:105930000848001F0068C0F30140401C4600B5FB4A
:10594000F6F902E0DFF8109000BF00BF4846BDE85E
:10595000F0870000083802400024F40040787D0100
:10596000F8B504460025207800F00100002874D026
:10597000F748006800F00C0004280DD0F4480068D7
:1059800000F00C00082813D1F148001F006800F453
:105990008000B0F5800F0BD1ED4808380068C0F3E7
:1059A0004040002859D06068002856D10120F8BD39
:1059B00000BF6068B0F5803F08D1E548083800684E
:1059C00040F48030E249083908601EE06068B0F5B4
:1059D000A02F0DD1DE480838006840F48020DC4953
:1059E000083908600846006840F4803008600CE020
:1059F000D7480838006820F48030D5490839086055
:105A00000846006820F48020086000BF606890B1FC
:105A1000FEF776FF054606E0FEF772FF401B64289E
:105A200001D90320C3E7CA4808380068C0F34040E2
:105A30000028F1D011E0FEF763FF054606E0FEF70F
:105A40005FFF401B642801D90320B0E7C048083835
:105A50000068C0F340400028F1D1207800F0020037
:105A600002285FD1BA48006800F00C0058B1B8486D
:105A7000006800F00C0008281CD1B548001F006821
:105A800000F48000B0B9B24808380068C0F34000A4
:105A900020B1E068012801D0012088E7AC4808382F
:105AA000006820F0F800216940EAC100A8490839DF
:105AB000086037E0E06800B30120A6490860FEF7FF
:105AC0001FFF054606E0FEF71BFF401B022801D919
:105AD00003206CE79E4808380068C0F340000028A7
